{"contracts/Glyph.sol":{"Glyph":{"abi":[{"inputs":[{"internalType":"address","name":"_usdt","type":"address"},{"internalType":"string","name":"_baseImageUrl","type":"string"}],"stateMutability":"nonpayable","type":"constructor"},{"inputs":[{"internalType":"address","name":"sender","type":"address"},{"internalType":"uint256","name":"tokenId","type":"uint256"},{"internalType":"address","name":"owner","type":"address"}],"name":"ERC721IncorrectOwner","type":"error"},{"inputs":[{"internalType":"address","name":"operator","type":"address"},{"internalType":"uint256","name":"tokenId","type":"uint256"}],"name":"ERC721InsufficientApproval","type":"error"},{"inputs":[{"internalType":"address","name":"approver","type":"address"}],"name":"ERC721InvalidApprover","type":"error"},{"inputs":[{"internalType":"address","name":"operator","type":"address"}],"name":"ERC721InvalidOperator","type":"error"},{"inputs":[{"internalType":"address","name":"owner","type":"address"}],"name":"ERC721InvalidOwner","type":"error"},{"inputs":[{"internalType":"address","name":"receiver","type":"address"}],"name":"ERC721InvalidReceiver","type":"error"},{"inputs":[{"internalType":"address","name":"sender","type":"address"}],"name":"ERC721InvalidSender","type":"error"},{"inputs":[{"internalType":"uint256","name":"tokenId","type":"uint256"}],"name":"ERC721NonexistentToken","type":"error"},{"inputs":[{"internalType":"address","name":"owner","type":"address"}],"name":"OwnableInvalidOwner","type":"error"},{"inputs":[{"internalType":"address","name":"account","type":"address"}],"name":"OwnableUnauthorizedAccount","type":"error"},{"anonymous":false,"inputs":[{"indexed":true,"internalType":"address","name":"owner","type":"address"},{"indexed":true,"internalType":"address","name":"approved","type":"address"},{"indexed":true,"internalType":"uint256","name":"tokenId","type":"uint256"}],"name":"Approval","type":"event"},{"anonymous":false,"inputs":[{"indexed":true,"internalType":"address","name":"owner","type":"address"},{"indexed":true,"internalType":"address","name":"operator","type":"address"},{"indexed":false,"internalType":"bool","name":"approved","type":"bool"}],"name":"ApprovalForAll","type":"event"},{"anonymous":false,"inputs":[{"indexed":true,"internalType":"address","name":"player","type":"address"},{"indexed":false,"internalType":"uint256","name":"tokenId","type":"uint256"},{"indexed":false,"internalType":"uint8","name":"tier","type":"uint8"},{"indexed":false,"internalType":"uint8","name":"cardIndex","type":"uint8"}],"name":"Minted","type":"event"},{"anonymous":false,"inputs":[{"indexed":true,"internalType":"address","name":"previousOwner","type":"address"},{"indexed":true,"internalType":"address","name":"newOwner","type":"address"}],"name":"OwnershipTransferred","type":"event"},{"anonymous":false,"inputs":[{"indexed":true,"internalType":"address","name":"player","type":"address"},{"indexed":false,"internalType":"uint256","name":"matchId","type":"uint256"},{"indexed":false,"internalType":"bool","name":"correct","type":"bool"}],"name":"PickScored","type":"event"},{"anonymous":false,"inputs":[{"indexed":true,"internalType":"address","name":"player","type":"address"},{"indexed":false,"internalType":"uint256","name":"matchId","type":"uint256"},{"indexed":false,"internalType":"uint8","name":"pick","type":"uint8"}],"name":"Predicted","type":"event"},{"anonymous":false,"inputs":[{"indexed":true,"internalType":"address","name":"player","type":"address"},{"indexed":false,"internalType":"uint256","name":"amount","type":"uint256"}],"name":"PrizeClaimed","type":"event"},{"anonymous":false,"inputs":[{"indexed":true,"internalType":"address","name":"from","type":"address"},{"indexed":true,"internalType":"address","name":"to","type":"address"},{"indexed":true,"internalType":"uint256","name":"tokenId","type":"uint256"}],"name":"Transfer","type":"event"},{"anonymous":false,"inputs":[{"indexed":true,"internalType":"address","name":"player","type":"address"},{"indexed":false,"internalType":"uint256","name":"burnedId","type":"uint256"},{"indexed":false,"internalType":"uint256","name":"newId","type":"uint256"},{"indexed":false,"internalType":"uint8","name":"newTier","type":"uint8"}],"name":"Upgraded","type":"event"},{"inputs":[],"name":"COMMON","outputs":[{"internalType":"uint8","name":"","type":"uint8"}],"stateMutability":"view","type":"function"},{"inputs":[],"name":"EPIC","outputs":[{"internalType":"uint8","name":"","type":"uint8"}],"stateMutability":"view","type":"function"},{"inputs":[],"name":"LEGENDARY","outputs":[{"internalType":"uint8","name":"","type":"uint8"}],"stateMutability":"view","type":"function"},{"inputs":[],"name":"MINT_PRICE","outputs":[{"internalType":"uint256","name":"","type":"uint256"}],"stateMutability":"view","type":"function"},{"inputs":[],"name":"RARE","outputs":[{"internalType":"uint8","name":"","type":"uint8"}],"stateMutability":"view","type":"function"},{"inputs":[{"internalType":"uint256","name":"","type":"uint256"}],"name":"THRESHOLDS","outputs":[{"internalType":"uint8","name":"","type":"uint8"}],"stateMutability":"view","type":"function"},{"inputs":[],"name":"UNCOMMON","outputs":[{"internalType":"uint8","name":"","type":"uint8"}],"stateMutability":"view","type":"function"},{"inputs":[{"internalType":"address","name":"to","type":"address"},{"internalType":"uint256","name":"tokenId","type":"uint256"}],"name":"approve","outputs":[],"stateMutability":"nonpayable","type":"function"},{"inputs":[{"internalType":"address","name":"owner","type":"address"}],"name":"balanceOf","outputs":[{"internalType":"uint256","name":"","type":"uint256"}],"stateMutability":"view","type":"function"},{"inputs":[],"name":"baseImageUrl","outputs":[{"internalType":"string","name":"","type":"string"}],"stateMutability":"view","type":"function"},{"inputs":[{"internalType":"uint256","name":"","type":"uint256"}],"name":"cardIndex","outputs":[{"internalType":"uint8","name":"","type":"uint8"}],"stateMutability":"view","type":"function"},{"inputs":[],"name":"claimPrize","outputs":[],"stateMutability":"nonpayable","type":"function"},{"inputs":[{"internalType":"address","name":"","type":"address"}],"name":"correctPicks","outputs":[{"internalType":"uint8","name":"","type":"uint8"}],"stateMutability":"view","type":"function"},{"inputs":[{"internalType":"address","name":"","type":"address"}],"name":"everMinted","outputs":[{"internalType":"bool","name":"","type":"bool"}],"stateMutability":"view","type":"function"},{"inputs":[{"internalType":"uint256","name":"tokenId","type":"uint256"}],"name":"getApproved","outputs":[{"internalType":"address","name":"","type":"address"}],"stateMutability":"view","type":"function"},{"inputs":[{"internalType":"address","name":"","type":"address"},{"internalType":"uint256","name":"","type":"uint256"}],"name":"hasPredicted","outputs":[{"internalType":"bool","name":"","type":"bool"}],"stateMutability":"view","type":"function"},{"inputs":[{"internalType":"address","name":"player","type":"address"}],"name":"isActivePlayer","outputs":[{"internalType":"bool","name":"","type":"bool"}],"stateMutability":"view","type":"function"},{"inputs":[{"internalType":"address","name":"owner","type":"address"},{"internalType":"address","name":"operator","type":"address"}],"name":"isApprovedForAll","outputs":[{"internalType":"bool","name":"","type":"bool"}],"stateMutability":"view","type":"function"},{"inputs":[],"name":"legendaryCount","outputs":[{"internalType":"uint256","name":"","type":"uint256"}],"stateMutability":"view","type":"function"},{"inputs":[],"name":"mint","outputs":[],"stateMutability":"nonpayable","type":"function"},{"inputs":[],"name":"name","outputs":[{"internalType":"string","name":"","type":"string"}],"stateMutability":"view","type":"function"},{"inputs":[],"name":"nextTokenId","outputs":[{"internalType":"uint256","name":"","type":"uint256"}],"stateMutability":"view","type":"function"},{"inputs":[],"name":"owner","outputs":[{"internalType":"address","name":"","type":"address"}],"stateMutability":"view","type":"function"},{"inputs":[{"internalType":"uint256","name":"tokenId","type":"uint256"}],"name":"ownerOf","outputs":[{"internalType":"address","name":"","type":"address"}],"stateMutability":"view","type":"function"},{"inputs":[{"internalType":"address","name":"","type":"address"}],"name":"playerToken","outputs":[{"internalType":"uint256","name":"","type":"uint256"}],"stateMutability":"view","type":"function"},{"inputs":[{"internalType":"uint256","name":"matchId","type":"uint256"},{"internalType":"uint8","name":"pick","type":"uint8"}],"name":"predict","outputs":[],"stateMutability":"nonpayable","type":"function"},{"inputs":[],"name":"prizePool","outputs":[{"internalType":"uint256","name":"","type":"uint256"}],"stateMutability":"view","type":"function"},{"inputs":[],"name":"renounceOwnership","outputs":[],"stateMutability":"nonpayable","type":"function"},{"inputs":[{"internalType":"address","name":"from","type":"address"},{"internalType":"address","name":"to","type":"address"},{"internalType":"uint256","name":"tokenId","type":"uint256"}],"name":"safeTransferFrom","outputs":[],"stateMutability":"nonpayable","type":"function"},{"inputs":[{"internalType":"address","name":"from","type":"address"},{"internalType":"address","name":"to","type":"address"},{"internalType":"uint256","name":"tokenId","type":"uint256"},{"internalType":"bytes","name":"data","type":"bytes"}],"name":"safeTransferFrom","outputs":[],"stateMutability":"nonpayable","type":"function"},{"inputs":[{"internalType":"address[]","name":"players","type":"address[]"},{"internalType":"uint256","name":"matchId","type":"uint256"},{"internalType":"uint8[]","name":"picks","type":"uint8[]"},{"internalType":"uint8","name":"result","type":"uint8"}],"name":"scorePickBatch","outputs":[],"stateMutability":"nonpayable","type":"function"},{"inputs":[{"internalType":"address","name":"operator","type":"address"},{"internalType":"bool","name":"approved","type":"bool"}],"name":"setApprovalForAll","outputs":[],"stateMutability":"nonpayable","type":"function"},{"inputs":[{"internalType":"string","name":"url","type":"string"}],"name":"setBaseImageUrl","outputs":[],"stateMutability":"nonpayable","type":"function"},{"inputs":[{"internalType":"bytes4","name":"interfaceId","type":"bytes4"}],"name":"supportsInterface","outputs":[{"internalType":"bool","name":"","type":"bool"}],"stateMutability":"view","type":"function"},{"inputs":[],"name":"symbol","outputs":[{"internalType":"string","name":"","type":"string"}],"stateMutability":"view","type":"function"},{"inputs":[{"internalType":"uint256","name":"","type":"uint256"}],"name":"tier","outputs":[{"internalType":"uint8","name":"","type":"uint8"}],"stateMutability":"view","type":"function"},{"inputs":[{"internalType":"uint256","name":"tokenId","type":"uint256"}],"name":"tokenURI","outputs":[{"internalType":"string","name":"","type":"string"}],"stateMutability":"view","type":"function"},{"inputs":[{"internalType":"address","name":"from","type":"address"},{"internalType":"address","name":"to","type":"address"},{"internalType":"uint256","name":"tokenId","type":"uint256"}],"name":"transferFrom","outputs":[],"stateMutability":"nonpayable","type":"function"},{"inputs":[{"internalType":"address","name":"newOwner","type":"address"}],"name":"transferOwnership","outputs":[],"stateMutability":"nonpayable","type":"function"},{"inputs":[],"name":"upgrade","outputs":[],"stateMutability":"nonpayable","type":"function"},{"inputs":[],"name":"usdt","outputs":[{"internalType":"contract IERC20","name":"","type":"address"}],"stateMutability":"view","type":"function"}],"evm":{"bytecode":{"linkReferences":{},"object":"610120604052600a60a0908152601460c052602360e0526037610100526200002c9060079060046200016f565b5060016008553480156200003e575f80fd5b506040516200269338038062002693833981016040819052620000619162000230565b336040518060400160405280600581526020016408ed8f2e0d60db1b8152506040518060400160405280600581526020016408e98b2a0960db1b815250815f9081620000ae9190620003a8565b506001620000bd8282620003a8565b5050506001600160a01b038116620000ee57604051631e4fbdf760e01b81525f600482015260240160405180910390fd5b620000f9816200011e565b506001600160a01b0382166080526011620001158282620003a8565b50505062000474565b600680546001600160a01b038381166001600160a01b0319831681179093556040519116919082907f8be0079c531659141344cd1fd0a4f28419497f9722a3daafe3b4186f6b6457e0905f90a35050565b600183019183908215620001f4579160200282015f5b83821115620001c457835183826101000a81548160ff021916908360ff16021790555092602001926001016020815f0104928301926001030262000185565b8015620001f25782816101000a81549060ff02191690556001016020815f01049283019260010302620001c4565b505b506200020292915062000206565b5090565b5b8082111562000202575f815560010162000207565b634e487b7160e01b5f52604160045260245ffd5b5f806040838503121562000242575f80fd5b82516001600160a01b038116811462000259575f80fd5b602084810151919350906001600160401b038082111562000278575f80fd5b818601915086601f8301126200028c575f80fd5b815181811115620002a157620002a16200021c565b604051601f8201601f19908116603f01168101908382118183101715620002cc57620002cc6200021c565b816040528281528986848701011115620002e4575f80fd5b5f93505b82841015620003075784840186015181850187015292850192620002e8565b5f8684830101528096505050505050509250929050565b600181811c908216806200033357607f821691505b6020821081036200035257634e487b7160e01b5f52602260045260245ffd5b50919050565b601f821115620003a357805f5260205f20601f840160051c810160208510156200037f5750805b601f840160051c820191505b81811015620003a0575f81556001016200038b565b50505b505050565b81516001600160401b03811115620003c457620003c46200021c565b620003dc81620003d584546200031e565b8462000358565b602080601f83116001811462000412575f8415620003fa5750858301515b5f19600386901b1c1916600185901b1785556200046c565b5f85815260208120601f198616915b82811015620004425788860151825594840194600190910190840162000421565b50858210156200046057878501515f19600388901b60f8161c191681555b505060018460011b0185555b505050505050565b6080516121f86200049b5f395f8181610318015281816107130152610b0f01526121f85ff3fe608060405234801561000f575f80fd5b506004361061024a575f3560e01c8063715018a611610140578063b56aca51116100bf578063ce0348c611610084578063ce0348c614610536578063d55ec6971461053f578063e0b8fd8614610547578063e140d1e11461054f578063e985e9c514610557578063f2fde38b1461056a575f80fd5b8063b56aca51146104d1578063b88d4fde146104e4578063c002d23d146104f7578063c87b56dd14610501578063ca89f4e414610514575f80fd5b806384ec1ed21161010557806384ec1ed21461047f5780638da5cb5b1461049257806395d89b41146104a3578063a22cb465146104ab578063a5e554a8146104be575f80fd5b8063715018a614610455578063719ce73e1461045d57806375794a3c14610466578063816171c01461046f5780638467db1c14610477575f80fd5b806346e6a86c116101cc578063685ad31511610191578063685ad315146103d857806369a5e966146104055780636dda34db1461041857806370740ac91461043a57806370a0823114610442575f80fd5b806346e6a86c1461038157806354a7d931146103885780636352211e1461039b57806366d0713f146103ae57806366d146d7146103b6575f80fd5b806323b872dd1161021257806323b872dd146102d357806325986a93146102e65780632f48ab7d146103135780633c0fa0301461033a57806342842e0e1461036e575f80fd5b806301ffc9a71461024e57806306fdde0314610276578063081812fc1461028b578063095ea7b3146102b65780631249c58b146102cb575b5f80fd5b61026161025c366004611a90565b61057d565b60405190151581526020015b60405180910390f35b61027e6105ce565b60405161026d9190611af8565b61029e610299366004611b0a565b61065d565b6040516001600160a01b03909116815260200161026d565b6102c96102c4366004611b3c565b610684565b005b6102c9610693565b6102c96102e1366004611b64565b610808565b6102616102f4366004611b3c565b600e60209081525f928352604080842090915290825290205460ff1681565b61029e7f000000000000000000000000000000000000000000000000000000000000000081565b61035c610348366004611b9d565b600c6020525f908152604090205460ff1681565b60405160ff909116815260200161026d565b6102c961037c366004611b64565b610891565b61035c5f81565b610261610396366004611b9d565b6108b0565b61029e6103a9366004611b0a565b6108f7565b61027e610901565b6102616103c4366004611b9d565b600d6020525f908152604090205460ff1681565b6103f76103e6366004611b9d565b600b6020525f908152604090205481565b60405190815260200161026d565b61035c610413366004611b0a565b61098d565b61035c610426366004611b0a565b60096020525f908152604090205460ff1681565b6102c96109b6565b6103f7610450366004611b9d565b610bf0565b6102c9610c35565b6103f7600f5481565b6103f760085481565b61035c600281565b61035c600381565b6102c961048d366004611bc6565b610c48565b6006546001600160a01b031661029e565b61027e610da4565b6102c96104b9366004611bfd565b610db3565b6102c96104cc366004611c7a565b610dbe565b6102c96104df366004611d84565b610efb565b6102c96104f2366004611dc9565b610f0f565b6103f76207a12081565b61027e61050f366004611b0a565b610f27565b61035c610522366004611b0a565b600a6020525f908152604090205460ff1681565b6103f760105481565b6102c9610fb2565b61035c600181565b61035c600481565b610261610565366004611e40565b611178565b6102c9610578366004611b9d565b6111a5565b5f6001600160e01b031982166380ac58cd60e01b14806105ad57506001600160e01b03198216635b5e139f60e01b145b806105c857506301ffc9a760e01b6001600160e01b03198316145b92915050565b60605f80546105dc90611e68565b80601f016020809104026020016040519081016040528092919081815260200182805461060890611e68565b80156106535780601f1061062a57610100808354040283529160200191610653565b820191905f5260205f20905b81548152906001019060200180831161063657829003601f168201915b5050505050905090565b5f610667826111df565b505f828152600460205260409020546001600160a01b03166105c8565b61068f828233611216565b5050565b335f908152600d602052604090205460ff16156106ef5760405162461bcd60e51b815260206004820152601560248201527415d85b1b195d08185b1c9958591e481b5a5b9d1959605a1b60448201526064015b60405180910390fd5b6040516323b872dd60e01b81523360048201523060248201526207a12060448201527f00000000000000000000000000000000000000000000000000000000000000006001600160a01b0316906323b872dd906064016020604051808303815f875af1158015610761573d5f803e3d5ffd5b505050506040513d601f19601f820116820180604052508101906107859190611ea0565b6107c85760405162461bcd60e51b81526020600482015260146024820152731554d115081d1c985b9cd9995c8819985a5b195960621b60448201526064016106e6565b6207a120600f5f8282546107dc9190611ecf565b9091555050335f818152600d60205260408120805460ff19166001179055610805919080611223565b50565b6001600160a01b03821661083157604051633250574960e11b81525f60048201526024016106e6565b5f61083d83833361136f565b9050836001600160a01b0316816001600160a01b03161461088b576040516364283d7b60e01b81526001600160a01b03808616600483015260248201849052821660448201526064016106e6565b50505050565b6108ab83838360405180602001604052805f815250610f0f565b505050565b6001600160a01b0381165f908152600b602052604081205480158015906108f05750826001600160a01b03166108e58261145c565b6001600160a01b0316145b9392505050565b5f6105c8826111df565b6011805461090e90611e68565b80601f016020809104026020016040519081016040528092919081815260200182805461093a90611e68565b80156109855780601f1061095c57610100808354040283529160200191610985565b820191905f5260205f20905b81548152906001019060200180831161096857829003601f168201915b505050505081565b6007816004811061099c575f80fd5b60209182820401919006915054906101000a900460ff1681565b335f908152600b602052604090205480158015906109e45750336109d98261145c565b6001600160a01b0316145b610a005760405162461bcd60e51b81526004016106e690611ee2565b5f8181526009602052604090205460ff16600414610a505760405162461bcd60e51b815260206004820152600d60248201526c4e6f74204c6567656e6461727960981b60448201526064016106e6565b5f60105411610a925760405162461bcd60e51b815260206004820152600e60248201526d4e6f204c6567656e64617269657360901b60448201526064016106e6565b5f601054600f54610aa39190611f1e565b905080600f5f828254610ab69190611f31565b909155505060108054905f610aca83611f44565b9190505550610ad882611476565b335f818152600b6020526040808220919091555163a9059cbb60e01b81526004810191909152602481018290526001600160a01b037f0000000000000000000000000000000000000000000000000000000000000000169063a9059cbb906044016020604051808303815f875af1158015610b55573d5f803e3d5ffd5b505050506040513d601f19601f82011682018060405250810190610b799190611ea0565b610bb75760405162461bcd60e51b815260206004820152600f60248201526e151c985b9cd9995c8819985a5b1959608a1b60448201526064016106e6565b60405181815233907f95681e512bc0fe659e195e06c283eada494316f3d801213e48e7101af92bf7709060200160405180910390a25050565b5f6001600160a01b038216610c1a576040516322718ad960e21b81525f60048201526024016106e6565b506001600160a01b03165f9081526003602052604090205490565b610c3d6114ae565b610c465f6114db565b565b335f908152600b60205260409020548015801590610c76575033610c6b8261145c565b6001600160a01b0316145b610c925760405162461bcd60e51b81526004016106e690611ee2565b60028260ff161115610cd55760405162461bcd60e51b815260206004820152600c60248201526b496e76616c6964207069636b60a01b60448201526064016106e6565b335f908152600e6020908152604080832086845290915290205460ff1615610d3f5760405162461bcd60e51b815260206004820152601c60248201527f416c7265616479207072656469637465642074686973206d617463680000000060448201526064016106e6565b335f818152600e60209081526040808320878452825291829020805460ff19166001179055815186815260ff8616918101919091527faadeac52f52b538cb4dd2bf5d92f9a7cf1c58bd176a962dfb39f157206650bc8910160405180910390a2505050565b6060600180546105dc90611e68565b61068f33838361152c565b610dc66114ae565b5f5b85811015610ef2575f8260ff16858584818110610de757610de7611f59565b9050602002016020810190610dfc9190611f6d565b60ff161490508015610e7557600c5f898985818110610e1d57610e1d611f59565b9050602002016020810190610e329190611b9d565b6001600160a01b0316815260208101919091526040015f908120805460ff1691610e5b83611f86565b91906101000a81548160ff021916908360ff160217905550505b878783818110610e8757610e87611f59565b9050602002016020810190610e9c9190611b9d565b6001600160a01b03167f485c8fa8957e85c6992f33a1b9bcb5c1770e2830a155d57fe2fe7809b0c2e1498783604051610ee19291909182521515602082015260400190565b60405180910390a250600101610dc8565b50505050505050565b610f036114ae565b601161068f8282611fe8565b610f1a848484610808565b61088b33858585856115f3565b60605f610f338361145c565b6001600160a01b031603610f805760405162461bcd60e51b8152602060048201526014602482015273151bdad95b88191bd95cc81b9bdd08195e1a5cdd60621b60448201526064016106e6565b6011610f8b8361171b565b604051602001610f9c9291906120a4565b6040516020818303038152906040529050919050565b335f908152600b60205260409020548015801590610fe0575033610fd58261145c565b6001600160a01b0316145b610ffc5760405162461bcd60e51b81526004016106e690611ee2565b5f8181526009602052604090205460ff16600481106110515760405162461bcd60e51b8152602060048201526011602482015270416c7265616479204c6567656e6461727960781b60448201526064016106e6565b60078160ff166004811061106757611067611f59565b602080820490920154335f908152600c90935260409092205460ff601f9092166101000a9092048116911610156110e05760405162461bcd60e51b815260206004820152601860248201527f4e6f7420656e6f75676820636f7272656374207069636b73000000000000000060448201526064016106e6565b335f908152600c60205260409020805460ff191690558161110081611476565b335f908152600b6020526040812081905561111c836001612127565b90505f61112a338385611223565b604080518581526020810183905260ff851681830152905191925033917f8b83b632e375471ac1fd0ff09305f7bfb67122a67eeea2a14dc1bd9e231d66b99181900360600190a25050505050565b6001600160a01b039182165f90815260056020908152604080832093909416825291909152205460ff1690565b6111ad6114ae565b6001600160a01b0381166111d657604051631e4fbdf760e01b81525f60048201526024016106e6565b610805816114db565b5f806111ea8361145c565b90506001600160a01b0381166105c857604051637e27328960e01b8152600481018490526024016106e6565b6108ab8383836001611821565b5f806005428685600854604051602001611268949392919093845260609290921b6bffffffffffffffffffffffff191660208401526034830152605482015260740190565b604051602081830303815290604052805190602001205f1c61128a9190612140565b600880549192505f91908261129e83612153565b9190505590506112ae8682611925565b5f818152600960209081526040808320805460ff808b1660ff199283168117909355600a85528386208054918916919092161790556001600160a01b038a168452600b909252909120829055600319016113175760108054905f61131183612153565b91905055505b6040805182815260ff878116602083015284168183015290516001600160a01b038816917fe56ec0b2b9f75b77de932c097cc96381bb499784d1e1dd76938a9bc865f083fb919081900360600190a295945050505050565b5f8061137a8461145c565b90506001600160a01b038316156113965761139681848661193e565b6001600160a01b038116156113d0576113b15f855f80611821565b6001600160a01b0381165f90815260036020526040902080545f190190555b6001600160a01b038516156113fe576001600160a01b0385165f908152600360205260409020805460010190555b5f8481526002602052604080822080546001600160a01b0319166001600160a01b0389811691821790925591518793918516917fddf252ad1be2c89b69c2b068fc378daa952ba7f163c4a11628f55a4df523b3ef91a4949350505050565b5f908152600260205260409020546001600160a01b031690565b5f6114825f835f61136f565b90506001600160a01b03811661068f57604051637e27328960e01b8152600481018390526024016106e6565b6006546001600160a01b03163314610c465760405163118cdaa760e01b81523360048201526024016106e6565b600680546001600160a01b038381166001600160a01b0319831681179093556040519116919082907f8be0079c531659141344cd1fd0a4f28419497f9722a3daafe3b4186f6b6457e0905f90a35050565b6001600160a01b0383166115555760405163a9fbf51f60e01b81525f60048201526024016106e6565b6001600160a01b03821661158757604051630b61174360e31b81526001600160a01b03831660048201526024016106e6565b6001600160a01b038381165f81815260056020908152604080832094871680845294825291829020805460ff191686151590811790915591519182527f17307eab39ab6107e8899845ad3d59bd9653f200f220920489ca2b5937696c31910160405180910390a3505050565b6001600160a01b0383163b1561171457604051630a85bd0160e11b81526001600160a01b0384169063150b7a029061163590889088908790879060040161216b565b6020604051808303815f875af192505050801561166f575060408051601f3d908101601f1916820190925261166c918101906121a7565b60015b6116d6573d80801561169c576040519150601f19603f3d011682016040523d82523d5f602084013e6116a1565b606091505b5080515f036116ce57604051633250574960e11b81526001600160a01b03851660048201526024016106e6565b805160208201fd5b6001600160e01b03198116630a85bd0160e11b1461171257604051633250574960e11b81526001600160a01b03851660048201526024016106e6565b505b5050505050565b6060815f036117415750506040805180820190915260018152600360fc1b602082015290565b815f5b811561176a578061175481612153565b91506117639050600a83611f1e565b9150611744565b5f8167ffffffffffffffff81111561178457611784611cfd565b6040519080825280601f01601f1916602001820160405280156117ae576020820181803683370190505b5090505b841561181957816117c281611f44565b92506117d19050600a86612140565b6117dc906030611ecf565b60f81b8183815181106117f1576117f1611f59565b60200101906001600160f81b03191690815f1a905350611812600a86611f1e565b94506117b2565b949350505050565b808061183557506001600160a01b03821615155b156118f6575f611844846111df565b90506001600160a01b038316158015906118705750826001600160a01b0316816001600160a01b031614155b801561188357506118818184611178565b155b156118ac5760405163a9fbf51f60e01b81526001600160a01b03841660048201526024016106e6565b81156118f45783856001600160a01b0316826001600160a01b03167f8c5be1e5ebec7d5bd14f71427d1e84f3dd0314c0f7b2291e5b200ac8c7c3b92560405160405180910390a45b505b50505f90815260046020526040902080546001600160a01b0319166001600160a01b0392909216919091179055565b61068f828260405180602001604052805f8152506119a2565b6119498383836119b9565b6108ab576001600160a01b03831661197757604051637e27328960e01b8152600481018290526024016106e6565b60405163177e802f60e01b81526001600160a01b0383166004820152602481018290526044016106e6565b6119ac8383611a1a565b6108ab335f8585856115f3565b5f6001600160a01b038316158015906118195750826001600160a01b0316846001600160a01b031614806119f257506119f28484611178565b806118195750505f908152600460205260409020546001600160a01b03908116911614919050565b6001600160a01b038216611a4357604051633250574960e11b81525f60048201526024016106e6565b5f611a4f83835f61136f565b90506001600160a01b038116156108ab576040516339e3563760e11b81525f60048201526024016106e6565b6001600160e01b031981168114610805575f80fd5b5f60208284031215611aa0575f80fd5b81356108f081611a7b565b5f5b83811015611ac5578181015183820152602001611aad565b50505f910152565b5f8151808452611ae4816020860160208601611aab565b601f01601f19169290920160200192915050565b602081525f6108f06020830184611acd565b5f60208284031215611b1a575f80fd5b5035919050565b80356001600160a01b0381168114611b37575f80fd5b919050565b5f8060408385031215611b4d575f80fd5b611b5683611b21565b946020939093013593505050565b5f805f60608486031215611b76575f80fd5b611b7f84611b21565b9250611b8d60208501611b21565b9150604084013590509250925092565b5f60208284031215611bad575f80fd5b6108f082611b21565b803560ff81168114611b37575f80fd5b5f8060408385031215611bd7575f80fd5b82359150611be760208401611bb6565b90509250929050565b8015158114610805575f80fd5b5f8060408385031215611c0e575f80fd5b611c1783611b21565b91506020830135611c2781611bf0565b809150509250929050565b5f8083601f840112611c42575f80fd5b50813567ffffffffffffffff811115611c59575f80fd5b6020830191508360208260051b8501011115611c73575f80fd5b9250929050565b5f805f805f8060808789031215611c8f575f80fd5b863567ffffffffffffffff80821115611ca6575f80fd5b611cb28a838b01611c32565b9098509650602089013595506040890135915080821115611cd1575f80fd5b50611cde89828a01611c32565b9094509250611cf1905060608801611bb6565b90509295509295509295565b634e487b7160e01b5f52604160045260245ffd5b5f67ffffffffffffffff80841115611d2b57611d2b611cfd565b604051601f8501601f19908116603f01168101908282118183101715611d5357611d53611cfd565b81604052809350858152868686011115611d6b575f80fd5b858560208301375f602087830101525050509392505050565b5f60208284031215611d94575f80fd5b813567ffffffffffffffff811115611daa575f80fd5b8201601f81018413611dba575f80fd5b61181984823560208401611d11565b5f805f8060808587031215611ddc575f80fd5b611de585611b21565b9350611df360208601611b21565b925060408501359150606085013567ffffffffffffffff811115611e15575f80fd5b8501601f81018713611e25575f80fd5b611e3487823560208401611d11565b91505092959194509250565b5f8060408385031215611e51575f80fd5b611e5a83611b21565b9150611be760208401611b21565b600181811c90821680611e7c57607f821691505b602082108103611e9a57634e487b7160e01b5f52602260045260245ffd5b50919050565b5f60208284031215611eb0575f80fd5b81516108f081611bf0565b634e487b7160e01b5f52601160045260245ffd5b808201808211156105c8576105c8611ebb565b6020808252600e908201526d139bc81858dd1a5d994818d85c9960921b604082015260600190565b634e487b7160e01b5f52601260045260245ffd5b5f82611f2c57611f2c611f0a565b500490565b818103818111156105c8576105c8611ebb565b5f81611f5257611f52611ebb565b505f190190565b634e487b7160e01b5f52603260045260245ffd5b5f60208284031215611f7d575f80fd5b6108f082611bb6565b5f60ff821660ff8103611f9b57611f9b611ebb565b60010192915050565b601f8211156108ab57805f5260205f20601f840160051c81016020851015611fc95750805b601f840160051c820191505b81811015611714575f8155600101611fd5565b815167ffffffffffffffff81111561200257612002611cfd565b612016816120108454611e68565b84611fa4565b602080601f831160018114612049575f84156120325750858301515b5f19600386901b1c1916600185901b178555611712565b5f85815260208120601f198616915b8281101561207757888601518255948401946001909101908401612058565b508582101561209457878501515f19600388901b60f8161c191681555b5050505050600190811b01905550565b5f8084546120b181611e68565b600182811680156120c957600181146120de5761210a565b60ff198416875282151583028701945061210a565b885f526020805f205f5b858110156121015781548a8201529084019082016120e8565b50505082870194505b50505050835161211e818360208801611aab565b01949350505050565b60ff81811683821601908111156105c8576105c8611ebb565b5f8261214e5761214e611f0a565b500690565b5f6001820161216457612164611ebb565b5060010190565b6001600160a01b03858116825284166020820152604081018390526080606082018190525f9061219d90830184611acd565b9695505050505050565b5f602082840312156121b7575f80fd5b81516108f081611a7b56fea264697066735822122040b012f18f00674f93ee14b1e4b6f4489806e16e3d6e2d68983d1359507f006064736f6c63430008180033","opcodes":"PUSH2 0x120 PUSH1 0x40 MSTORE PUSH1 0xA PUSH1 0xA0 SWAP1 DUP2 MSTORE PUSH1 0x14 PUSH1 0xC0 MSTORE PUSH1 0x23 PUSH1 0xE0 MSTORE PUSH1 0x37 PUSH2 0x100 MSTORE PUSH3 0x2C SWAP1 PUSH1 0x7 SWAP1 PUSH1 0x4 PUSH3 0x16F JUMP JUMPDEST POP PUSH1 0x1 PUSH1 0x8 SSTORE CALLVALUE DUP1 ISZERO PUSH3 0x3E JUMPI PUSH0 DUP1 REVERT JUMPDEST POP PUSH1 0x40 MLOAD PUSH3 0x2693 CODESIZE SUB DUP1 PUSH3 0x2693 DUP4 CODECOPY DUP2 ADD PUSH1 0x40 DUP2 SWAP1 MSTORE PUSH3 0x61 SWAP2 PUSH3 0x230 JUMP JUMPDEST CALLER PUSH1 0x40 MLOAD DUP1 PUSH1 0x40 ADD PUSH1 0x40 MSTORE DUP1 PUSH1 0x5 DUP2 MSTORE PUSH1 0x20 ADD PUSH5 0x8ED8F2E0D PUSH1 0xDB SHL DUP2 MSTORE POP PUSH1 0x40 MLOAD DUP1 PUSH1 0x40 ADD PUSH1 0x40 MSTORE DUP1 PUSH1 0x5 DUP2 MSTORE PUSH1 0x20 ADD PUSH5 0x8E98B2A09 PUSH1 0xDB SHL DUP2 MSTORE POP DUP2 PUSH0 SWAP1 DUP2 PUSH3 0xAE SWAP2 SWAP1 PUSH3 0x3A8 JUMP JUMPDEST POP PUSH1 0x1 PUSH3 0xBD DUP3 DUP3 PUSH3 0x3A8 JUMP JUMPDEST POP POP POP PUSH1 0x1 PUSH1 0x1 PUSH1 0xA0 SHL SUB DUP2 AND PUSH3 0xEE JUMPI PUSH1 0x40 MLOAD PUSH4 0x1E4FBDF7 PUSH1 0xE0 SHL DUP2 MSTORE PUSH0 PUSH1 0x4 DUP3 ADD MSTORE PUSH1 0x24 ADD PUSH1 0x40 MLOAD DUP1 SWAP2 SUB SWAP1 REVERT JUMPDEST PUSH3 0xF9 DUP2 PUSH3 0x11E JUMP JUMPDEST POP PUSH1 0x1 PUSH1 0x1 PUSH1 0xA0 SHL SUB DUP3 AND PUSH1 0x80 MSTORE PUSH1 0x11 PUSH3 0x115 DUP3 DUP3 PUSH3 0x3A8 JUMP JUMPDEST POP POP POP PUSH3 0x474 JUMP JUMPDEST PUSH1 0x6 DUP1 SLOAD PUSH1 0x1 PUSH1 0x1 PUSH1 0xA0 SHL SUB DUP4 DUP2 AND PUSH1 0x1 PUSH1 0x1 PUSH1 0xA0 SHL SUB NOT DUP4 AND DUP2 OR SWAP1 SWAP4 SSTORE PUSH1 0x40 MLOAD SWAP2 AND SWAP2 SWAP1 DUP3 SWAP1 PUSH32 0x8BE0079C531659141344CD1FD0A4F28419497F9722A3DAAFE3B4186F6B6457E0 SWAP1 PUSH0 SWAP1 LOG3 POP POP JUMP JUMPDEST PUSH1 0x1 DUP4 ADD SWAP2 DUP4 SWAP1 DUP3 ISZERO PUSH3 0x1F4 JUMPI SWAP2 PUSH1 0x20 MUL DUP3 ADD PUSH0 JUMPDEST DUP4 DUP3 GT ISZERO PUSH3 0x1C4 JUMPI DUP4 MLOAD DUP4 DUP3 PUSH2 0x100 EXP DUP2 SLOAD DUP2 PUSH1 0xFF MUL NOT AND SWAP1 DUP4 PUSH1 0xFF AND MUL OR SWAP1 SSTORE POP SWAP3 PUSH1 0x20 ADD SWAP3 PUSH1 0x1 ADD PUSH1 0x20 DUP2 PUSH0 ADD DIV SWAP3 DUP4 ADD SWAP3 PUSH1 0x1 SUB MUL PUSH3 0x185 JUMP JUMPDEST DUP1 ISZERO PUSH3 0x1F2 JUMPI DUP3 DUP2 PUSH2 0x100 EXP DUP2 SLOAD SWAP1 PUSH1 0xFF MUL NOT AND SWAP1 SSTORE PUSH1 0x1 ADD PUSH1 0x20 DUP2 PUSH0 ADD DIV SWAP3 DUP4 ADD SWAP3 PUSH1 0x1 SUB MUL PUSH3 0x1C4 JUMP JUMPDEST POP JUMPDEST POP PUSH3 0x202 SWAP3 SWAP2 POP PUSH3 0x206 JUMP JUMPDEST POP SWAP1 JUMP JUMPDEST JUMPDEST DUP1 DUP3 GT ISZERO PUSH3 0x202 JUMPI PUSH0 DUP2 SSTORE PUSH1 0x1 ADD PUSH3 0x207 JUMP JUMPDEST PUSH4 0x4E487B71 PUSH1 0xE0 SHL PUSH0 MSTORE PUSH1 0x41 PUSH1 0x4 MSTORE PUSH1 0x24 PUSH0 REVERT JUMPDEST PUSH0 DUP1 PUSH1 0x40 DUP4 DUP6 SUB SLT ISZERO PUSH3 0x242 JUMPI PUSH0 DUP1 REVERT JUMPDEST DUP3 MLOAD PUSH1 0x1 PUSH1 0x1 PUSH1 0xA0 SHL SUB DUP2 AND DUP2 EQ PUSH3 0x259 JUMPI PUSH0 DUP1 REVERT JUMPDEST PUSH1 0x20 DUP5 DUP2 ADD MLOAD SWAP2 SWAP4 POP SWAP1 PUSH1 0x1 PUSH1 0x1 PUSH1 0x40 SHL SUB DUP1 DUP3 GT ISZERO PUSH3 0x278 JUMPI PUSH0 DUP1 REVERT JUMPDEST DUP2 DUP7 ADD SWAP2 POP DUP7 PUSH1 0x1F DUP4 ADD SLT PUSH3 0x28C JUMPI PUSH0 DUP1 REVERT JUMPDEST DUP2 MLOAD DUP2 DUP2 GT ISZERO PUSH3 0x2A1 JUMPI PUSH3 0x2A1 PUSH3 0x21C JUMP JUMPDEST PUSH1 0x40 MLOAD PUSH1 0x1F DUP3 ADD PUSH1 0x1F NOT SWAP1 DUP2 AND PUSH1 0x3F ADD AND DUP2 ADD SWAP1 DUP4 DUP3 GT DUP2 DUP4 LT OR ISZERO PUSH3 0x2CC JUMPI PUSH3 0x2CC PUSH3 0x21C JUMP JUMPDEST DUP2 PUSH1 0x40 MSTORE DUP3 DUP2 MSTORE DUP10 DUP7 DUP5 DUP8 ADD ADD GT ISZERO PUSH3 0x2E4 JUMPI PUSH0 DUP1 REVERT JUMPDEST PUSH0 SWAP4 POP JUMPDEST DUP3 DUP5 LT ISZERO PUSH3 0x307 JUMPI DUP5 DUP5 ADD DUP7 ADD MLOAD DUP2 DUP6 ADD DUP8 ADD MSTORE SWAP3 DUP6 ADD SWAP3 PUSH3 0x2E8 JUMP JUMPDEST PUSH0 DUP7 DUP5 DUP4 ADD ADD MSTORE DUP1 SWAP7 POP POP POP POP POP POP POP SWAP3 POP SWAP3 SWAP1 POP JUMP JUMPDEST PUSH1 0x1 DUP2 DUP2 SHR SWAP1 DUP3 AND DUP1 PUSH3 0x333 JUMPI PUSH1 0x7F DUP3 AND SWAP2 POP JUMPDEST PUSH1 0x20 DUP3 LT DUP2 SUB PUSH3 0x352 JUMPI PUSH4 0x4E487B71 PUSH1 0xE0 SHL PUSH0 MSTORE PUSH1 0x22 PUSH1 0x4 MSTORE PUSH1 0x24 PUSH0 REVERT JUMPDEST POP SWAP2 SWAP1 POP JUMP JUMPDEST PUSH1 0x1F DUP3 GT ISZERO PUSH3 0x3A3 JUMPI DUP1 PUSH0 MSTORE PUSH1 0x20 PUSH0 KECCAK256 PUSH1 0x1F DUP5 ADD PUSH1 0x5 SHR DUP2 ADD PUSH1 0x20 DUP6 LT ISZERO PUSH3 0x37F JUMPI POP DUP1 JUMPDEST PUSH1 0x1F DUP5 ADD PUSH1 0x5 SHR DUP3 ADD SWAP2 POP JUMPDEST DUP2 DUP2 LT ISZERO PUSH3 0x3A0 JUMPI PUSH0 DUP2 SSTORE PUSH1 0x1 ADD PUSH3 0x38B JUMP JUMPDEST POP POP JUMPDEST POP POP POP JUMP JUMPDEST DUP2 MLOAD PUSH1 0x1 PUSH1 0x1 PUSH1 0x40 SHL SUB DUP2 GT ISZERO PUSH3 0x3C4 JUMPI PUSH3 0x3C4 PUSH3 0x21C JUMP JUMPDEST PUSH3 0x3DC DUP2 PUSH3 0x3D5 DUP5 SLOAD PUSH3 0x31E JUMP JUMPDEST DUP5 PUSH3 0x358 JUMP JUMPDEST PUSH1 0x20 DUP1 PUSH1 0x1F DUP4 GT PUSH1 0x1 DUP2 EQ PUSH3 0x412 JUMPI PUSH0 DUP5 ISZERO PUSH3 0x3FA JUMPI POP DUP6 DUP4 ADD MLOAD JUMPDEST PUSH0 NOT PUSH1 0x3 DUP7 SWAP1 SHL SHR NOT AND PUSH1 0x1 DUP6 SWAP1 SHL OR DUP6 SSTORE PUSH3 0x46C JUMP JUMPDEST PUSH0 DUP6 DUP2 MSTORE PUSH1 0x20 DUP2 KECCAK256 PUSH1 0x1F NOT DUP7 AND SWAP2 JUMPDEST DUP3 DUP2 LT ISZERO PUSH3 0x442 JUMPI DUP9 DUP7 ADD MLOAD DUP3 SSTORE SWAP5 DUP5 ADD SWAP5 PUSH1 0x1 SWAP1 SWAP2 ADD SWAP1 DUP5 ADD PUSH3 0x421 JUMP JUMPDEST POP DUP6 DUP3 LT ISZERO PUSH3 0x460 JUMPI DUP8 DUP6 ADD MLOAD PUSH0 NOT PUSH1 0x3 DUP9 SWAP1 SHL PUSH1 0xF8 AND SHR NOT AND DUP2 SSTORE JUMPDEST POP POP PUSH1 0x1 DUP5 PUSH1 0x1 SHL ADD DUP6 SSTORE JUMPDEST POP POP POP POP POP POP JUMP JUMPDEST PUSH1 0x80 MLOAD PUSH2 0x21F8 PUSH3 0x49B PUSH0 CODECOPY PUSH0 DUP2 DUP2 PUSH2 0x318 ADD MSTORE DUP2 DUP2 PUSH2 0x713 ADD MSTORE PUSH2 0xB0F ADD MSTORE PUSH2 0x21F8 PUSH0 RETURN INVALID PUSH1 0x80 PUSH1 0x40 MSTORE CALLVALUE DUP1 ISZERO PUSH2 0xF JUMPI PUSH0 DUP1 REVERT JUMPDEST POP PUSH1 0x4 CALLDATASIZE LT PUSH2 0x24A JUMPI PUSH0 CALLDATALOAD PUSH1 0xE0 SHR DUP1 PUSH4 0x715018A6 GT PUSH2 0x140 JUMPI DUP1 PUSH4 0xB56ACA51 GT PUSH2 0xBF JUMPI DUP1 PUSH4 0xCE0348C6 GT PUSH2 0x84 JUMPI DUP1 PUSH4 0xCE0348C6 EQ PUSH2 0x536 JUMPI DUP1 PUSH4 0xD55EC697 EQ PUSH2 0x53F JUMPI DUP1 PUSH4 0xE0B8FD86 EQ PUSH2 0x547 JUMPI DUP1 PUSH4 0xE140D1E1 EQ PUSH2 0x54F JUMPI DUP1 PUSH4 0xE985E9C5 EQ PUSH2 0x557 JUMPI DUP1 PUSH4 0xF2FDE38B EQ PUSH2 0x56A JUMPI PUSH0 DUP1 REVERT JUMPDEST DUP1 PUSH4 0xB56ACA51 EQ PUSH2 0x4D1 JUMPI DUP1 PUSH4 0xB88D4FDE EQ PUSH2 0x4E4 JUMPI DUP1 PUSH4 0xC002D23D EQ PUSH2 0x4F7 JUMPI DUP1 PUSH4 0xC87B56DD EQ PUSH2 0x501 JUMPI DUP1 PUSH4 0xCA89F4E4 EQ PUSH2 0x514 JUMPI PUSH0 DUP1 REVERT JUMPDEST DUP1 PUSH4 0x84EC1ED2 GT PUSH2 0x105 JUMPI DUP1 PUSH4 0x84EC1ED2 EQ PUSH2 0x47F JUMPI DUP1 PUSH4 0x8DA5CB5B EQ PUSH2 0x492 JUMPI DUP1 PUSH4 0x95D89B41 EQ PUSH2 0x4A3 JUMPI DUP1 PUSH4 0xA22CB465 EQ PUSH2 0x4AB JUMPI DUP1 PUSH4 0xA5E554A8 EQ PUSH2 0x4BE JUMPI PUSH0 DUP1 REVERT JUMPDEST DUP1 PUSH4 0x715018A6 EQ PUSH2 0x455 JUMPI DUP1 PUSH4 0x719CE73E EQ PUSH2 0x45D JUMPI DUP1 PUSH4 0x75794A3C EQ PUSH2 0x466 JUMPI DUP1 PUSH4 0x816171C0 EQ PUSH2 0x46F JUMPI DUP1 PUSH4 0x8467DB1C EQ PUSH2 0x477 JUMPI PUSH0 DUP1 REVERT JUMPDEST DUP1 PUSH4 0x46E6A86C GT PUSH2 0x1CC JUMPI DUP1 PUSH4 0x685AD315 GT PUSH2 0x191 JUMPI DUP1 PUSH4 0x685AD315 EQ PUSH2 0x3D8 JUMPI DUP1 PUSH4 0x69A5E966 EQ PUSH2 0x405 JUMPI DUP1 PUSH4 0x6DDA34DB EQ PUSH2 0x418 JUMPI DUP1 PUSH4 0x70740AC9 EQ PUSH2 0x43A JUMPI DUP1 PUSH4 0x70A08231 EQ PUSH2 0x442 JUMPI PUSH0 DUP1 REVERT JUMPDEST DUP1 PUSH4 0x46E6A86C EQ PUSH2 0x381 JUMPI DUP1 PUSH4 0x54A7D931 EQ PUSH2 0x388 JUMPI DUP1 PUSH4 0x6352211E EQ PUSH2 0x39B JUMPI DUP1 PUSH4 0x66D0713F EQ PUSH2 0x3AE JUMPI DUP1 PUSH4 0x66D146D7 EQ PUSH2 0x3B6 JUMPI PUSH0 DUP1 REVERT JUMPDEST DUP1 PUSH4 0x23B872DD GT PUSH2 0x212 JUMPI DUP1 PUSH4 0x23B872DD EQ PUSH2 0x2D3 JUMPI DUP1 PUSH4 0x25986A93 EQ PUSH2 0x2E6 JUMPI DUP1 PUSH4 0x2F48AB7D EQ PUSH2 0x313 JUMPI DUP1 PUSH4 0x3C0FA030 EQ PUSH2 0x33A JUMPI DUP1 PUSH4 0x42842E0E EQ PUSH2 0x36E JUMPI PUSH0 DUP1 REVERT JUMPDEST DUP1 PUSH4 0x1FFC9A7 EQ PUSH2 0x24E JUMPI DUP1 PUSH4 0x6FDDE03 EQ PUSH2 0x276 JUMPI DUP1 PUSH4 0x81812FC EQ PUSH2 0x28B JUMPI DUP1 PUSH4 0x95EA7B3 EQ PUSH2 0x2B6 JUMPI DUP1 PUSH4 0x1249C58B EQ PUSH2 0x2CB JUMPI JUMPDEST PUSH0 DUP1 REVERT JUMPDEST PUSH2 0x261 PUSH2 0x25C CALLDATASIZE PUSH1 0x4 PUSH2 0x1A90 JUMP JUMPDEST PUSH2 0x57D JUMP JUMPDEST PUSH1 0x40 MLOAD SWAP1 ISZERO ISZERO DUP2 MSTORE PUSH1 0x20 ADD JUMPDEST PUSH1 0x40 MLOAD DUP1 SWAP2 SUB SWAP1 RETURN JUMPDEST PUSH2 0x27E PUSH2 0x5CE JUMP JUMPDEST PUSH1 0x40 MLOAD PUSH2 0x26D SWAP2 SWAP1 PUSH2 0x1AF8 JUMP JUMPDEST PUSH2 0x29E PUSH2 0x299 CALLDATASIZE PUSH1 0x4 PUSH2 0x1B0A JUMP JUMPDEST PUSH2 0x65D JUMP JUMPDEST PUSH1 0x40 MLOAD PUSH1 0x1 PUSH1 0x1 PUSH1 0xA0 SHL SUB SWAP1 SWAP2 AND DUP2 MSTORE PUSH1 0x20 ADD PUSH2 0x26D JUMP JUMPDEST PUSH2 0x2C9 PUSH2 0x2C4 CALLDATASIZE PUSH1 0x4 PUSH2 0x1B3C JUMP JUMPDEST PUSH2 0x684 JUMP JUMPDEST STOP JUMPDEST PUSH2 0x2C9 PUSH2 0x693 JUMP JUMPDEST PUSH2 0x2C9 PUSH2 0x2E1 CALLDATASIZE PUSH1 0x4 PUSH2 0x1B64 JUMP JUMPDEST PUSH2 0x808 JUMP JUMPDEST PUSH2 0x261 PUSH2 0x2F4 CALLDATASIZE PUSH1 0x4 PUSH2 0x1B3C JUMP JUMPDEST PUSH1 0xE PUSH1 0x20 SWAP1 DUP2 MSTORE PUSH0 SWAP3 DUP4 MSTORE PUSH1 0x40 DUP1 DUP5 KECCAK256 SWAP1 SWAP2 MSTORE SWAP1 DUP3 MSTORE SWAP1 KECCAK256 SLOAD PUSH1 0xFF AND DUP2 JUMP JUMPDEST PUSH2 0x29E PUSH32 0x0 DUP2 JUMP JUMPDEST PUSH2 0x35C PUSH2 0x348 CALLDATASIZE PUSH1 0x4 PUSH2 0x1B9D JUMP JUMPDEST PUSH1 0xC PUSH1 0x20 MSTORE PUSH0 SWAP1 DUP2 MSTORE PUSH1 0x40 SWAP1 KECCAK256 SLOAD PUSH1 0xFF AND DUP2 JUMP JUMPDEST PUSH1 0x40 MLOAD PUSH1 0xFF SWAP1 SWAP2 AND DUP2 MSTORE PUSH1 0x20 ADD PUSH2 0x26D JUMP JUMPDEST PUSH2 0x2C9 PUSH2 0x37C CALLDATASIZE PUSH1 0x4 PUSH2 0x1B64 JUMP JUMPDEST PUSH2 0x891 JUMP JUMPDEST PUSH2 0x35C PUSH0 DUP2 JUMP JUMPDEST PUSH2 0x261 PUSH2 0x396 CALLDATASIZE PUSH1 0x4 PUSH2 0x1B9D JUMP JUMPDEST PUSH2 0x8B0 JUMP JUMPDEST PUSH2 0x29E PUSH2 0x3A9 CALLDATASIZE PUSH1 0x4 PUSH2 0x1B0A JUMP JUMPDEST PUSH2 0x8F7 JUMP JUMPDEST PUSH2 0x27E PUSH2 0x901 JUMP JUMPDEST PUSH2 0x261 PUSH2 0x3C4 CALLDATASIZE PUSH1 0x4 PUSH2 0x1B9D JUMP JUMPDEST PUSH1 0xD PUSH1 0x20 MSTORE PUSH0 SWAP1 DUP2 MSTORE PUSH1 0x40 SWAP1 KECCAK256 SLOAD PUSH1 0xFF AND DUP2 JUMP JUMPDEST PUSH2 0x3F7 PUSH2 0x3E6 CALLDATASIZE PUSH1 0x4 PUSH2 0x1B9D JUMP JUMPDEST PUSH1 0xB PUSH1 0x20 MSTORE PUSH0 SWAP1 DUP2 MSTORE PUSH1 0x40 SWAP1 KECCAK256 SLOAD DUP2 JUMP JUMPDEST PUSH1 0x40 MLOAD SWAP1 DUP2 MSTORE PUSH1 0x20 ADD PUSH2 0x26D JUMP JUMPDEST PUSH2 0x35C PUSH2 0x413 CALLDATASIZE PUSH1 0x4 PUSH2 0x1B0A JUMP JUMPDEST PUSH2 0x98D JUMP JUMPDEST PUSH2 0x35C PUSH2 0x426 CALLDATASIZE PUSH1 0x4 PUSH2 0x1B0A JUMP JUMPDEST PUSH1 0x9 PUSH1 0x20 MSTORE PUSH0 SWAP1 DUP2 MSTORE PUSH1 0x40 SWAP1 KECCAK256 SLOAD PUSH1 0xFF AND DUP2 JUMP JUMPDEST PUSH2 0x2C9 PUSH2 0x9B6 JUMP JUMPDEST PUSH2 0x3F7 PUSH2 0x450 CALLDATASIZE PUSH1 0x4 PUSH2 0x1B9D JUMP JUMPDEST PUSH2 0xBF0 JUMP JUMPDEST PUSH2 0x2C9 PUSH2 0xC35 JUMP JUMPDEST PUSH2 0x3F7 PUSH1 0xF SLOAD DUP2 JUMP JUMPDEST PUSH2 0x3F7 PUSH1 0x8 SLOAD DUP2 JUMP JUMPDEST PUSH2 0x35C PUSH1 0x2 DUP2 JUMP JUMPDEST PUSH2 0x35C PUSH1 0x3 DUP2 JUMP JUMPDEST PUSH2 0x2C9 PUSH2 0x48D CALLDATASIZE PUSH1 0x4 PUSH2 0x1BC6 JUMP JUMPDEST PUSH2 0xC48 JUMP JUMPDEST PUSH1 0x6 SLOAD PUSH1 0x1 PUSH1 0x1 PUSH1 0xA0 SHL SUB AND PUSH2 0x29E JUMP JUMPDEST PUSH2 0x27E PUSH2 0xDA4 JUMP JUMPDEST PUSH2 0x2C9 PUSH2 0x4B9 CALLDATASIZE PUSH1 0x4 PUSH2 0x1BFD JUMP JUMPDEST PUSH2 0xDB3 JUMP JUMPDEST PUSH2 0x2C9 PUSH2 0x4CC CALLDATASIZE PUSH1 0x4 PUSH2 0x1C7A JUMP JUMPDEST PUSH2 0xDBE JUMP JUMPDEST PUSH2 0x2C9 PUSH2 0x4DF CALLDATASIZE PUSH1 0x4 PUSH2 0x1D84 JUMP JUMPDEST PUSH2 0xEFB JUMP JUMPDEST PUSH2 0x2C9 PUSH2 0x4F2 CALLDATASIZE PUSH1 0x4 PUSH2 0x1DC9 JUMP JUMPDEST PUSH2 0xF0F JUMP JUMPDEST PUSH2 0x3F7 PUSH3 0x7A120 DUP2 JUMP JUMPDEST PUSH2 0x27E PUSH2 0x50F CALLDATASIZE PUSH1 0x4 PUSH2 0x1B0A JUMP JUMPDEST PUSH2 0xF27 JUMP JUMPDEST PUSH2 0x35C PUSH2 0x522 CALLDATASIZE PUSH1 0x4 PUSH2 0x1B0A JUMP JUMPDEST PUSH1 0xA PUSH1 0x20 MSTORE PUSH0 SWAP1 DUP2 MSTORE PUSH1 0x40 SWAP1 KECCAK256 SLOAD PUSH1 0xFF AND DUP2 JUMP JUMPDEST PUSH2 0x3F7 PUSH1 0x10 SLOAD DUP2 JUMP JUMPDEST PUSH2 0x2C9 PUSH2 0xFB2 JUMP JUMPDEST PUSH2 0x35C PUSH1 0x1 DUP2 JUMP JUMPDEST PUSH2 0x35C PUSH1 0x4 DUP2 JUMP JUMPDEST PUSH2 0x261 PUSH2 0x565 CALLDATASIZE PUSH1 0x4 PUSH2 0x1E40 JUMP JUMPDEST PUSH2 0x1178 JUMP JUMPDEST PUSH2 0x2C9 PUSH2 0x578 CALLDATASIZE PUSH1 0x4 PUSH2 0x1B9D JUMP JUMPDEST PUSH2 0x11A5 JUMP JUMPDEST PUSH0 PUSH1 0x1 PUSH1 0x1 PUSH1 0xE0 SHL SUB NOT DUP3 AND PUSH4 0x80AC58CD PUSH1 0xE0 SHL EQ DUP1 PUSH2 0x5AD JUMPI POP PUSH1 0x1 PUSH1 0x1 PUSH1 0xE0 SHL SUB NOT DUP3 AND PUSH4 0x5B5E139F PUSH1 0xE0 SHL EQ JUMPDEST DUP1 PUSH2 0x5C8 JUMPI POP PUSH4 0x1FFC9A7 PUSH1 0xE0 SHL PUSH1 0x1 PUSH1 0x1 PUSH1 0xE0 SHL SUB NOT DUP4 AND EQ JUMPDEST SWAP3 SWAP2 POP POP JUMP JUMPDEST PUSH1 0x60 PUSH0 DUP1 SLOAD PUSH2 0x5DC SWAP1 PUSH2 0x1E68 JUMP JUMPDEST DUP1 PUSH1 0x1F ADD PUSH1 0x20 DUP1 SWAP2 DIV MUL PUSH1 0x20 ADD PUSH1 0x40 MLOAD SWAP1 DUP2 ADD PUSH1 0x40 MSTORE DUP1 SWAP3 SWAP2 SWAP1 DUP2 DUP2 MSTORE PUSH1 0x20 ADD DUP3 DUP1 SLOAD PUSH2 0x608 SWAP1 PUSH2 0x1E68 JUMP JUMPDEST DUP1 ISZERO PUSH2 0x653 JUMPI DUP1 PUSH1 0x1F LT PUSH2 0x62A JUMPI PUSH2 0x100 DUP1 DUP4 SLOAD DIV MUL DUP4 MSTORE SWAP2 PUSH1 0x20 ADD SWAP2 PUSH2 0x653 JUMP JUMPDEST DUP3 ADD SWAP2 SWAP1 PUSH0 MSTORE PUSH1 0x20 PUSH0 KECCAK256 SWAP1 JUMPDEST DUP2 SLOAD DUP2 MSTORE SWAP1 PUSH1 0x1 ADD SWAP1 PUSH1 0x20 ADD DUP1 DUP4 GT PUSH2 0x636 JUMPI DUP3 SWAP1 SUB PUSH1 0x1F AND DUP3 ADD SWAP2 JUMPDEST POP POP POP POP POP SWAP1 POP SWAP1 JUMP JUMPDEST PUSH0 PUSH2 0x667 DUP3 PUSH2 0x11DF JUMP JUMPDEST POP PUSH0 DUP3 DUP2 MSTORE PUSH1 0x4 PUSH1 0x20 MSTORE PUSH1 0x40 SWAP1 KECCAK256 SLOAD PUSH1 0x1 PUSH1 0x1 PUSH1 0xA0 SHL SUB AND PUSH2 0x5C8 JUMP JUMPDEST PUSH2 0x68F DUP3 DUP3 CALLER PUSH2 0x1216 JUMP JUMPDEST POP POP JUMP JUMPDEST CALLER PUSH0 SWAP1 DUP2 MSTORE PUSH1 0xD PUSH1 0x20 MSTORE PUSH1 0x40 SWAP1 KECCAK256 SLOAD PUSH1 0xFF AND ISZERO PUSH2 0x6EF JUMPI PUSH1 0x40 MLOAD PUSH3 0x461BCD PUSH1 0xE5 SHL DUP2 MSTORE PUSH1 0x20 PUSH1 0x4 DUP3 ADD MSTORE PUSH1 0x15 PUSH1 0x24 DUP3 ADD MSTORE PUSH21 0x15D85B1B195D08185B1C9958591E481B5A5B9D1959 PUSH1 0x5A SHL PUSH1 0x44 DUP3 ADD MSTORE PUSH1 0x64 ADD JUMPDEST PUSH1 0x40 MLOAD DUP1 SWAP2 SUB SWAP1 REVERT JUMPDEST PUSH1 0x40 MLOAD PUSH4 0x23B872DD PUSH1 0xE0 SHL DUP2 MSTORE CALLER PUSH1 0x4 DUP3 ADD MSTORE ADDRESS PUSH1 0x24 DUP3 ADD MSTORE PUSH3 0x7A120 PUSH1 0x44 DUP3 ADD MSTORE PUSH32 0x0 PUSH1 0x1 PUSH1 0x1 PUSH1 0xA0 SHL SUB AND SWAP1 PUSH4 0x23B872DD SWAP1 PUSH1 0x64 ADD PUSH1 0x20 PUSH1 0x40 MLOAD DUP1 DUP4 SUB DUP2 PUSH0 DUP8 GAS CALL ISZERO DUP1 ISZERO PUSH2 0x761 JUMPI RETURNDATASIZE PUSH0 DUP1 RETURNDATACOPY RETURNDATASIZE PUSH0 REVERT JUMPDEST POP POP POP POP PUSH1 0x40 MLOAD RETURNDATASIZE PUSH1 0x1F NOT PUSH1 0x1F DUP3 ADD AND DUP3 ADD DUP1 PUSH1 0x40 MSTORE POP DUP2 ADD SWAP1 PUSH2 0x785 SWAP2 SWAP1 PUSH2 0x1EA0 JUMP JUMPDEST PUSH2 0x7C8 JUMPI PUSH1 0x40 MLOAD PUSH3 0x461BCD PUSH1 0xE5 SHL DUP2 MSTORE PUSH1 0x20 PUSH1 0x4 DUP3 ADD MSTORE PUSH1 0x14 PUSH1 0x24 DUP3 ADD MSTORE PUSH20 0x1554D115081D1C985B9CD9995C8819985A5B1959 PUSH1 0x62 SHL PUSH1 0x44 DUP3 ADD MSTORE PUSH1 0x64 ADD PUSH2 0x6E6 JUMP JUMPDEST PUSH3 0x7A120 PUSH1 0xF PUSH0 DUP3 DUP3 SLOAD PUSH2 0x7DC SWAP2 SWAP1 PUSH2 0x1ECF JUMP JUMPDEST SWAP1 SWAP2 SSTORE POP POP CALLER PUSH0 DUP2 DUP2 MSTORE PUSH1 0xD PUSH1 0x20 MSTORE PUSH1 0x40 DUP2 KECCAK256 DUP1 SLOAD PUSH1 0xFF NOT AND PUSH1 0x1 OR SWAP1 SSTORE PUSH2 0x805 SWAP2 SWAP1 DUP1 PUSH2 0x1223 JUMP JUMPDEST POP JUMP JUMPDEST PUSH1 0x1 PUSH1 0x1 PUSH1 0xA0 SHL SUB DUP3 AND PUSH2 0x831 JUMPI PUSH1 0x40 MLOAD PUSH4 0x32505749 PUSH1 0xE1 SHL DUP2 MSTORE PUSH0 PUSH1 0x4 DUP3 ADD MSTORE PUSH1 0x24 ADD PUSH2 0x6E6 JUMP JUMPDEST PUSH0 PUSH2 0x83D DUP4 DUP4 CALLER PUSH2 0x136F JUMP JUMPDEST SWAP1 POP DUP4 PUSH1 0x1 PUSH1 0x1 PUSH1 0xA0 SHL SUB AND DUP2 PUSH1 0x1 PUSH1 0x1 PUSH1 0xA0 SHL SUB AND EQ PUSH2 0x88B JUMPI PUSH1 0x40 MLOAD PUSH4 0x64283D7B PUSH1 0xE0 SHL DUP2 MSTORE PUSH1 0x1 PUSH1 0x1 PUSH1 0xA0 SHL SUB DUP1 DUP7 AND PUSH1 0x4 DUP4 ADD MSTORE PUSH1 0x24 DUP3 ADD DUP5 SWAP1 MSTORE DUP3 AND PUSH1 0x44 DUP3 ADD MSTORE PUSH1 0x64 ADD PUSH2 0x6E6 JUMP JUMPDEST POP POP POP POP JUMP JUMPDEST PUSH2 0x8AB DUP4 DUP4 DUP4 PUSH1 0x40 MLOAD DUP1 PUSH1 0x20 ADD PUSH1 0x40 MSTORE DUP1 PUSH0 DUP2 MSTORE POP PUSH2 0xF0F JUMP JUMPDEST POP POP POP JUMP JUMPDEST PUSH1 0x1 PUSH1 0x1 PUSH1 0xA0 SHL SUB DUP2 AND PUSH0 SWAP1 DUP2 MSTORE PUSH1 0xB PUSH1 0x20 MSTORE PUSH1 0x40 DUP2 KECCAK256 SLOAD DUP1 ISZERO DUP1 ISZERO SWAP1 PUSH2 0x8F0 JUMPI POP DUP3 PUSH1 0x1 PUSH1 0x1 PUSH1 0xA0 SHL SUB AND PUSH2 0x8E5 DUP3 PUSH2 0x145C JUMP JUMPDEST PUSH1 0x1 PUSH1 0x1 PUSH1 0xA0 SHL SUB AND EQ JUMPDEST SWAP4 SWAP3 POP POP POP JUMP JUMPDEST PUSH0 PUSH2 0x5C8 DUP3 PUSH2 0x11DF JUMP JUMPDEST PUSH1 0x11 DUP1 SLOAD PUSH2 0x90E SWAP1 PUSH2 0x1E68 JUMP JUMPDEST DUP1 PUSH1 0x1F ADD PUSH1 0x20 DUP1 SWAP2 DIV MUL PUSH1 0x20 ADD PUSH1 0x40 MLOAD SWAP1 DUP2 ADD PUSH1 0x40 MSTORE DUP1 SWAP3 SWAP2 SWAP1 DUP2 DUP2 MSTORE PUSH1 0x20 ADD DUP3 DUP1 SLOAD PUSH2 0x93A SWAP1 PUSH2 0x1E68 JUMP JUMPDEST DUP1 ISZERO PUSH2 0x985 JUMPI DUP1 PUSH1 0x1F LT PUSH2 0x95C JUMPI PUSH2 0x100 DUP1 DUP4 SLOAD DIV MUL DUP4 MSTORE SWAP2 PUSH1 0x20 ADD SWAP2 PUSH2 0x985 JUMP JUMPDEST DUP3 ADD SWAP2 SWAP1 PUSH0 MSTORE PUSH1 0x20 PUSH0 KECCAK256 SWAP1 JUMPDEST DUP2 SLOAD DUP2 MSTORE SWAP1 PUSH1 0x1 ADD SWAP1 PUSH1 0x20 ADD DUP1 DUP4 GT PUSH2 0x968 JUMPI DUP3 SWAP1 SUB PUSH1 0x1F AND DUP3 ADD SWAP2 JUMPDEST POP POP POP POP POP DUP2 JUMP JUMPDEST PUSH1 0x7 DUP2 PUSH1 0x4 DUP2 LT PUSH2 0x99C JUMPI PUSH0 DUP1 REVERT JUMPDEST PUSH1 0x20 SWAP2 DUP3 DUP3 DIV ADD SWAP2 SWAP1 MOD SWAP2 POP SLOAD SWAP1 PUSH2 0x100 EXP SWAP1 DIV PUSH1 0xFF AND DUP2 JUMP JUMPDEST CALLER PUSH0 SWAP1 DUP2 MSTORE PUSH1 0xB PUSH1 0x20 MSTORE PUSH1 0x40 SWAP1 KECCAK256 SLOAD DUP1 ISZERO DUP1 ISZERO SWAP1 PUSH2 0x9E4 JUMPI POP CALLER PUSH2 0x9D9 DUP3 PUSH2 0x145C JUMP JUMPDEST PUSH1 0x1 PUSH1 0x1 PUSH1 0xA0 SHL SUB AND EQ JUMPDEST PUSH2 0xA00 JUMPI PUSH1 0x40 MLOAD PUSH3 0x461BCD PUSH1 0xE5 SHL DUP2 MSTORE PUSH1 0x4 ADD PUSH2 0x6E6 SWAP1 PUSH2 0x1EE2 JUMP JUMPDEST PUSH0 DUP2 DUP2 MSTORE PUSH1 0x9 PUSH1 0x20 MSTORE PUSH1 0x40 SWAP1 KECCAK256 SLOAD PUSH1 0xFF AND PUSH1 0x4 EQ PUSH2 0xA50 JUMPI PUSH1 0x40 MLOAD PUSH3 0x461BCD PUSH1 0xE5 SHL DUP2 MSTORE PUSH1 0x20 PUSH1 0x4 DUP3 ADD MSTORE PUSH1 0xD PUSH1 0x24 DUP3 ADD MSTORE PUSH13 0x4E6F74204C6567656E64617279 PUSH1 0x98 SHL PUSH1 0x44 DUP3 ADD MSTORE PUSH1 0x64 ADD PUSH2 0x6E6 JUMP JUMPDEST PUSH0 PUSH1 0x10 SLOAD GT PUSH2 0xA92 JUMPI PUSH1 0x40 MLOAD PUSH3 0x461BCD PUSH1 0xE5 SHL DUP2 MSTORE PUSH1 0x20 PUSH1 0x4 DUP3 ADD MSTORE PUSH1 0xE PUSH1 0x24 DUP3 ADD MSTORE PUSH14 0x4E6F204C6567656E646172696573 PUSH1 0x90 SHL PUSH1 0x44 DUP3 ADD MSTORE PUSH1 0x64 ADD PUSH2 0x6E6 JUMP JUMPDEST PUSH0 PUSH1 0x10 SLOAD PUSH1 0xF SLOAD PUSH2 0xAA3 SWAP2 SWAP1 PUSH2 0x1F1E JUMP JUMPDEST SWAP1 POP DUP1 PUSH1 0xF PUSH0 DUP3 DUP3 SLOAD PUSH2 0xAB6 SWAP2 SWAP1 PUSH2 0x1F31 JUMP JUMPDEST SWAP1 SWAP2 SSTORE POP POP PUSH1 0x10 DUP1 SLOAD SWAP1 PUSH0 PUSH2 0xACA DUP4 PUSH2 0x1F44 JUMP JUMPDEST SWAP2 SWAP1 POP SSTORE POP PUSH2 0xAD8 DUP3 PUSH2 0x1476 JUMP JUMPDEST CALLER PUSH0 DUP2 DUP2 MSTORE PUSH1 0xB PUSH1 0x20 MSTORE PUSH1 0x40 DUP1 DUP3 KECCAK256 SWAP2 SWAP1 SWAP2 SSTORE MLOAD PUSH4 0xA9059CBB PUSH1 0xE0 SHL DUP2 MSTORE PUSH1 0x4 DUP2 ADD SWAP2 SWAP1 SWAP2 MSTORE PUSH1 0x24 DUP2 ADD DUP3 SWAP1 MSTORE PUSH1 0x1 PUSH1 0x1 PUSH1 0xA0 SHL SUB PUSH32 0x0 AND SWAP1 PUSH4 0xA9059CBB SWAP1 PUSH1 0x44 ADD PUSH1 0x20 PUSH1 0x40 MLOAD DUP1 DUP4 SUB DUP2 PUSH0 DUP8 GAS CALL ISZERO DUP1 ISZERO PUSH2 0xB55 JUMPI RETURNDATASIZE PUSH0 DUP1 RETURNDATACOPY RETURNDATASIZE PUSH0 REVERT JUMPDEST POP POP POP POP PUSH1 0x40 MLOAD RETURNDATASIZE PUSH1 0x1F NOT PUSH1 0x1F DUP3 ADD AND DUP3 ADD DUP1 PUSH1 0x40 MSTORE POP DUP2 ADD SWAP1 PUSH2 0xB79 SWAP2 SWAP1 PUSH2 0x1EA0 JUMP JUMPDEST PUSH2 0xBB7 JUMPI PUSH1 0x40 MLOAD PUSH3 0x461BCD PUSH1 0xE5 SHL DUP2 MSTORE PUSH1 0x20 PUSH1 0x4 DUP3 ADD MSTORE PUSH1 0xF PUSH1 0x24 DUP3 ADD MSTORE PUSH15 0x151C985B9CD9995C8819985A5B1959 PUSH1 0x8A SHL PUSH1 0x44 DUP3 ADD MSTORE PUSH1 0x64 ADD PUSH2 0x6E6 JUMP JUMPDEST PUSH1 0x40 MLOAD DUP2 DUP2 MSTORE CALLER SWAP1 PUSH32 0x95681E512BC0FE659E195E06C283EADA494316F3D801213E48E7101AF92BF770 SWAP1 PUSH1 0x20 ADD PUSH1 0x40 MLOAD DUP1 SWAP2 SUB SWAP1 LOG2 POP POP JUMP JUMPDEST PUSH0 PUSH1 0x1 PUSH1 0x1 PUSH1 0xA0 SHL SUB DUP3 AND PUSH2 0xC1A JUMPI PUSH1 0x40 MLOAD PUSH4 0x22718AD9 PUSH1 0xE2 SHL DUP2 MSTORE PUSH0 PUSH1 0x4 DUP3 ADD MSTORE PUSH1 0x24 ADD PUSH2 0x6E6 JUMP JUMPDEST POP PUSH1 0x1 PUSH1 0x1 PUSH1 0xA0 SHL SUB AND PUSH0 SWAP1 DUP2 MSTORE PUSH1 0x3 PUSH1 0x20 MSTORE PUSH1 0x40 SWAP1 KECCAK256 SLOAD SWAP1 JUMP JUMPDEST PUSH2 0xC3D PUSH2 0x14AE JUMP JUMPDEST PUSH2 0xC46 PUSH0 PUSH2 0x14DB JUMP JUMPDEST JUMP JUMPDEST CALLER PUSH0 SWAP1 DUP2 MSTORE PUSH1 0xB PUSH1 0x20 MSTORE PUSH1 0x40 SWAP1 KECCAK256 SLOAD DUP1 ISZERO DUP1 ISZERO SWAP1 PUSH2 0xC76 JUMPI POP CALLER PUSH2 0xC6B DUP3 PUSH2 0x145C JUMP JUMPDEST PUSH1 0x1 PUSH1 0x1 PUSH1 0xA0 SHL SUB AND EQ JUMPDEST PUSH2 0xC92 JUMPI PUSH1 0x40 MLOAD PUSH3 0x461BCD PUSH1 0xE5 SHL DUP2 MSTORE PUSH1 0x4 ADD PUSH2 0x6E6 SWAP1 PUSH2 0x1EE2 JUMP JUMPDEST PUSH1 0x2 DUP3 PUSH1 0xFF AND GT ISZERO PUSH2 0xCD5 JUMPI PUSH1 0x40 MLOAD PUSH3 0x461BCD PUSH1 0xE5 SHL DUP2 MSTORE PUSH1 0x20 PUSH1 0x4 DUP3 ADD MSTORE PUSH1 0xC PUSH1 0x24 DUP3 ADD MSTORE PUSH12 0x496E76616C6964207069636B PUSH1 0xA0 SHL PUSH1 0x44 DUP3 ADD MSTORE PUSH1 0x64 ADD PUSH2 0x6E6 JUMP JUMPDEST CALLER PUSH0 SWAP1 DUP2 MSTORE PUSH1 0xE PUSH1 0x20 SWAP1 DUP2 MSTORE PUSH1 0x40 DUP1 DUP4 KECCAK256 DUP7 DUP5 MSTORE SWAP1 SWAP2 MSTORE SWAP1 KECCAK256 SLOAD PUSH1 0xFF AND ISZERO PUSH2 0xD3F JUMPI PUSH1 0x40 MLOAD PUSH3 0x461BCD PUSH1 0xE5 SHL DUP2 MSTORE PUSH1 0x20 PUSH1 0x4 DUP3 ADD MSTORE PUSH1 0x1C PUSH1 0x24 DUP3 ADD MSTORE PUSH32 0x416C7265616479207072656469637465642074686973206D6174636800000000 PUSH1 0x44 DUP3 ADD MSTORE PUSH1 0x64 ADD PUSH2 0x6E6 JUMP JUMPDEST CALLER PUSH0 DUP2 DUP2 MSTORE PUSH1 0xE PUSH1 0x20 SWAP1 DUP2 MSTORE PUSH1 0x40 DUP1 DUP4 KECCAK256 DUP8 DUP5 MSTORE DUP3 MSTORE SWAP2 DUP3 SWAP1 KECCAK256 DUP1 SLOAD PUSH1 0xFF NOT AND PUSH1 0x1 OR SWAP1 SSTORE DUP2 MLOAD DUP7 DUP2 MSTORE PUSH1 0xFF DUP7 AND SWAP2 DUP2 ADD SWAP2 SWAP1 SWAP2 MSTORE PUSH32 0xAADEAC52F52B538CB4DD2BF5D92F9A7CF1C58BD176A962DFB39F157206650BC8 SWAP2 ADD PUSH1 0x40 MLOAD DUP1 SWAP2 SUB SWAP1 LOG2 POP POP POP JUMP JUMPDEST PUSH1 0x60 PUSH1 0x1 DUP1 SLOAD PUSH2 0x5DC SWAP1 PUSH2 0x1E68 JUMP JUMPDEST PUSH2 0x68F CALLER DUP4 DUP4 PUSH2 0x152C JUMP JUMPDEST PUSH2 0xDC6 PUSH2 0x14AE JUMP JUMPDEST PUSH0 JUMPDEST DUP6 DUP2 LT ISZERO PUSH2 0xEF2 JUMPI PUSH0 DUP3 PUSH1 0xFF AND DUP6 DUP6 DUP5 DUP2 DUP2 LT PUSH2 0xDE7 JUMPI PUSH2 0xDE7 PUSH2 0x1F59 JUMP JUMPDEST SWAP1 POP PUSH1 0x20 MUL ADD PUSH1 0x20 DUP2 ADD SWAP1 PUSH2 0xDFC SWAP2 SWAP1 PUSH2 0x1F6D JUMP JUMPDEST PUSH1 0xFF AND EQ SWAP1 POP DUP1 ISZERO PUSH2 0xE75 JUMPI PUSH1 0xC PUSH0 DUP10 DUP10 DUP6 DUP2 DUP2 LT PUSH2 0xE1D JUMPI PUSH2 0xE1D PUSH2 0x1F59 JUMP JUMPDEST SWAP1 POP PUSH1 0x20 MUL ADD PUSH1 0x20 DUP2 ADD SWAP1 PUSH2 0xE32 SWAP2 SWAP1 PUSH2 0x1B9D JUMP JUMPDEST PUSH1 0x1 PUSH1 0x1 PUSH1 0xA0 SHL SUB AND DUP2 MSTORE PUSH1 0x20 DUP2 ADD SWAP2 SWAP1 SWAP2 MSTORE PUSH1 0x40 ADD PUSH0 SWAP1 DUP2 KECCAK256 DUP1 SLOAD PUSH1 0xFF AND SWAP2 PUSH2 0xE5B DUP4 PUSH2 0x1F86 JUMP JUMPDEST SWAP2 SWAP1 PUSH2 0x100 EXP DUP2 SLOAD DUP2 PUSH1 0xFF MUL NOT AND SWAP1 DUP4 PUSH1 0xFF AND MUL OR SWAP1 SSTORE POP POP JUMPDEST DUP8 DUP8 DUP4 DUP2 DUP2 LT PUSH2 0xE87 JUMPI PUSH2 0xE87 PUSH2 0x1F59 JUMP JUMPDEST SWAP1 POP PUSH1 0x20 MUL ADD PUSH1 0x20 DUP2 ADD SWAP1 PUSH2 0xE9C SWAP2 SWAP1 PUSH2 0x1B9D JUMP JUMPDEST PUSH1 0x1 PUSH1 0x1 PUSH1 0xA0 SHL SUB AND PUSH32 0x485C8FA8957E85C6992F33A1B9BCB5C1770E2830A155D57FE2FE7809B0C2E149 DUP8 DUP4 PUSH1 0x40 MLOAD PUSH2 0xEE1 SWAP3 SWAP2 SWAP1 SWAP2 DUP3 MSTORE ISZERO ISZERO PUSH1 0x20 DUP3 ADD MSTORE PUSH1 0x40 ADD SWAP1 JUMP JUMPDEST PUSH1 0x40 MLOAD DUP1 SWAP2 SUB SWAP1 LOG2 POP PUSH1 0x1 ADD PUSH2 0xDC8 JUMP JUMPDEST POP POP POP POP POP POP POP JUMP JUMPDEST PUSH2 0xF03 PUSH2 0x14AE JUMP JUMPDEST PUSH1 0x11 PUSH2 0x68F DUP3 DUP3 PUSH2 0x1FE8 JUMP JUMPDEST PUSH2 0xF1A DUP5 DUP5 DUP5 PUSH2 0x808 JUMP JUMPDEST PUSH2 0x88B CALLER DUP6 DUP6 DUP6 DUP6 PUSH2 0x15F3 JUMP JUMPDEST PUSH1 0x60 PUSH0 PUSH2 0xF33 DUP4 PUSH2 0x145C JUMP JUMPDEST PUSH1 0x1 PUSH1 0x1 PUSH1 0xA0 SHL SUB AND SUB PUSH2 0xF80 JUMPI PUSH1 0x40 MLOAD PUSH3 0x461BCD PUSH1 0xE5 SHL DUP2 MSTORE PUSH1 0x20 PUSH1 0x4 DUP3 ADD MSTORE PUSH1 0x14 PUSH1 0x24 DUP3 ADD MSTORE PUSH20 0x151BDAD95B88191BD95CC81B9BDD08195E1A5CDD PUSH1 0x62 SHL PUSH1 0x44 DUP3 ADD MSTORE PUSH1 0x64 ADD PUSH2 0x6E6 JUMP JUMPDEST PUSH1 0x11 PUSH2 0xF8B DUP4 PUSH2 0x171B JUMP JUMPDEST PUSH1 0x40 MLOAD PUSH1 0x20 ADD PUSH2 0xF9C SWAP3 SWAP2 SWAP1 PUSH2 0x20A4 JUMP JUMPDEST PUSH1 0x40 MLOAD PUSH1 0x20 DUP2 DUP4 SUB SUB DUP2 MSTORE SWAP1 PUSH1 0x40 MSTORE SWAP1 POP SWAP2 SWAP1 POP JUMP JUMPDEST CALLER PUSH0 SWAP1 DUP2 MSTORE PUSH1 0xB PUSH1 0x20 MSTORE PUSH1 0x40 SWAP1 KECCAK256 SLOAD DUP1 ISZERO DUP1 ISZERO SWAP1 PUSH2 0xFE0 JUMPI POP CALLER PUSH2 0xFD5 DUP3 PUSH2 0x145C JUMP JUMPDEST PUSH1 0x1 PUSH1 0x1 PUSH1 0xA0 SHL SUB AND EQ JUMPDEST PUSH2 0xFFC JUMPI PUSH1 0x40 MLOAD PUSH3 0x461BCD PUSH1 0xE5 SHL DUP2 MSTORE PUSH1 0x4 ADD PUSH2 0x6E6 SWAP1 PUSH2 0x1EE2 JUMP JUMPDEST PUSH0 DUP2 DUP2 MSTORE PUSH1 0x9 PUSH1 0x20 MSTORE PUSH1 0x40 SWAP1 KECCAK256 SLOAD PUSH1 0xFF AND PUSH1 0x4 DUP2 LT PUSH2 0x1051 JUMPI PUSH1 0x40 MLOAD PUSH3 0x461BCD PUSH1 0xE5 SHL DUP2 MSTORE PUSH1 0x20 PUSH1 0x4 DUP3 ADD MSTORE PUSH1 0x11 PUSH1 0x24 DUP3 ADD MSTORE PUSH17 0x416C7265616479204C6567656E64617279 PUSH1 0x78 SHL PUSH1 0x44 DUP3 ADD MSTORE PUSH1 0x64 ADD PUSH2 0x6E6 JUMP JUMPDEST PUSH1 0x7 DUP2 PUSH1 0xFF AND PUSH1 0x4 DUP2 LT PUSH2 0x1067 JUMPI PUSH2 0x1067 PUSH2 0x1F59 JUMP JUMPDEST PUSH1 0x20 DUP1 DUP3 DIV SWAP1 SWAP3 ADD SLOAD CALLER PUSH0 SWAP1 DUP2 MSTORE PUSH1 0xC SWAP1 SWAP4 MSTORE PUSH1 0x40 SWAP1 SWAP3 KECCAK256 SLOAD PUSH1 0xFF PUSH1 0x1F SWAP1 SWAP3 AND PUSH2 0x100 EXP SWAP1 SWAP3 DIV DUP2 AND SWAP2 AND LT ISZERO PUSH2 0x10E0 JUMPI PUSH1 0x40 MLOAD PUSH3 0x461BCD PUSH1 0xE5 SHL DUP2 MSTORE PUSH1 0x20 PUSH1 0x4 DUP3 ADD MSTORE PUSH1 0x18 PUSH1 0x24 DUP3 ADD MSTORE PUSH32 0x4E6F7420656E6F75676820636F7272656374207069636B730000000000000000 PUSH1 0x44 DUP3 ADD MSTORE PUSH1 0x64 ADD PUSH2 0x6E6 JUMP JUMPDEST CALLER PUSH0 SWAP1 DUP2 MSTORE PUSH1 0xC PUSH1 0x20 MSTORE PUSH1 0x40 SWAP1 KECCAK256 DUP1 SLOAD PUSH1 0xFF NOT AND SWAP1 SSTORE DUP2 PUSH2 0x1100 DUP2 PUSH2 0x1476 JUMP JUMPDEST CALLER PUSH0 SWAP1 DUP2 MSTORE PUSH1 0xB PUSH1 0x20 MSTORE PUSH1 0x40 DUP2 KECCAK256 DUP2 SWAP1 SSTORE PUSH2 0x111C DUP4 PUSH1 0x1 PUSH2 0x2127 JUMP JUMPDEST SWAP1 POP PUSH0 PUSH2 0x112A CALLER DUP4 DUP6 PUSH2 0x1223 JUMP JUMPDEST PUSH1 0x40 DUP1 MLOAD DUP6 DUP2 MSTORE PUSH1 0x20 DUP2 ADD DUP4 SWAP1 MSTORE PUSH1 0xFF DUP6 AND DUP2 DUP4 ADD MSTORE SWAP1 MLOAD SWAP2 SWAP3 POP CALLER SWAP2 PUSH32 0x8B83B632E375471AC1FD0FF09305F7BFB67122A67EEEA2A14DC1BD9E231D66B9 SWAP2 DUP2 SWAP1 SUB PUSH1 0x60 ADD SWAP1 LOG2 POP POP POP POP POP JUMP JUMPDEST PUSH1 0x1 PUSH1 0x1 PUSH1 0xA0 SHL SUB SWAP2 DUP3 AND PUSH0 SWAP1 DUP2 MSTORE PUSH1 0x5 PUSH1 0x20 SWAP1 DUP2 MSTORE PUSH1 0x40 DUP1 DUP4 KECCAK256 SWAP4 SWAP1 SWAP5 AND DUP3 MSTORE SWAP2 SWAP1 SWAP2 MSTORE KECCAK256 SLOAD PUSH1 0xFF AND SWAP1 JUMP JUMPDEST PUSH2 0x11AD PUSH2 0x14AE JUMP JUMPDEST PUSH1 0x1 PUSH1 0x1 PUSH1 0xA0 SHL SUB DUP2 AND PUSH2 0x11D6 JUMPI PUSH1 0x40 MLOAD PUSH4 0x1E4FBDF7 PUSH1 0xE0 SHL DUP2 MSTORE PUSH0 PUSH1 0x4 DUP3 ADD MSTORE PUSH1 0x24 ADD PUSH2 0x6E6 JUMP JUMPDEST PUSH2 0x805 DUP2 PUSH2 0x14DB JUMP JUMPDEST PUSH0 DUP1 PUSH2 0x11EA DUP4 PUSH2 0x145C JUMP JUMPDEST SWAP1 POP PUSH1 0x1 PUSH1 0x1 PUSH1 0xA0 SHL SUB DUP2 AND PUSH2 0x5C8 JUMPI PUSH1 0x40 MLOAD PUSH4 0x7E273289 PUSH1 0xE0 SHL DUP2 MSTORE PUSH1 0x4 DUP2 ADD DUP5 SWAP1 MSTORE PUSH1 0x24 ADD PUSH2 0x6E6 JUMP JUMPDEST PUSH2 0x8AB DUP4 DUP4 DUP4 PUSH1 0x1 PUSH2 0x1821 JUMP JUMPDEST PUSH0 DUP1 PUSH1 0x5 TIMESTAMP DUP7 DUP6 PUSH1 0x8 SLOAD PUSH1 0x40 MLOAD PUSH1 0x20 ADD PUSH2 0x1268 SWAP5 SWAP4 SWAP3 SWAP2 SWAP1 SWAP4 DUP5 MSTORE PUSH1 0x60 SWAP3 SWAP1 SWAP3 SHL PUSH12 0xFFFFFFFFFFFFFFFFFFFFFFFF NOT AND PUSH1 0x20 DUP5 ADD MSTORE PUSH1 0x34 DUP4 ADD MSTORE PUSH1 0x54 DUP3 ADD MSTORE PUSH1 0x74 ADD SWAP1 JUMP JUMPDEST PUSH1 0x40 MLOAD PUSH1 0x20 DUP2 DUP4 SUB SUB DUP2 MSTORE SWAP1 PUSH1 0x40 MSTORE DUP1 MLOAD SWAP1 PUSH1 0x20 ADD KECCAK256 PUSH0 SHR PUSH2 0x128A SWAP2 SWAP1 PUSH2 0x2140 JUMP JUMPDEST PUSH1 0x8 DUP1 SLOAD SWAP2 SWAP3 POP PUSH0 SWAP2 SWAP1 DUP3 PUSH2 0x129E DUP4 PUSH2 0x2153 JUMP JUMPDEST SWAP2 SWAP1 POP SSTORE SWAP1 POP PUSH2 0x12AE DUP7 DUP3 PUSH2 0x1925 JUMP JUMPDEST PUSH0 DUP2 DUP2 MSTORE PUSH1 0x9 PUSH1 0x20 SWAP1 DUP2 MSTORE PUSH1 0x40 DUP1 DUP4 KECCAK256 DUP1 SLOAD PUSH1 0xFF DUP1 DUP12 AND PUSH1 0xFF NOT SWAP3 DUP4 AND DUP2 OR SWAP1 SWAP4 SSTORE PUSH1 0xA DUP6 MSTORE DUP4 DUP7 KECCAK256 DUP1 SLOAD SWAP2 DUP10 AND SWAP2 SWAP1 SWAP3 AND OR SWAP1 SSTORE PUSH1 0x1 PUSH1 0x1 PUSH1 0xA0 SHL SUB DUP11 AND DUP5 MSTORE PUSH1 0xB SWAP1 SWAP3 MSTORE SWAP1 SWAP2 KECCAK256 DUP3 SWAP1 SSTORE PUSH1 0x3 NOT ADD PUSH2 0x1317 JUMPI PUSH1 0x10 DUP1 SLOAD SWAP1 PUSH0 PUSH2 0x1311 DUP4 PUSH2 0x2153 JUMP JUMPDEST SWAP2 SWAP1 POP SSTORE POP JUMPDEST PUSH1 0x40 DUP1 MLOAD DUP3 DUP2 MSTORE PUSH1 0xFF DUP8 DUP2 AND PUSH1 0x20 DUP4 ADD MSTORE DUP5 AND DUP2 DUP4 ADD MSTORE SWAP1 MLOAD PUSH1 0x1 PUSH1 0x1 PUSH1 0xA0 SHL SUB DUP9 AND SWAP2 PUSH32 0xE56EC0B2B9F75B77DE932C097CC96381BB499784D1E1DD76938A9BC865F083FB SWAP2 SWAP1 DUP2 SWAP1 SUB PUSH1 0x60 ADD SWAP1 LOG2 SWAP6 SWAP5 POP POP POP POP POP JUMP JUMPDEST PUSH0 DUP1 PUSH2 0x137A DUP5 PUSH2 0x145C JUMP JUMPDEST SWAP1 POP PUSH1 0x1 PUSH1 0x1 PUSH1 0xA0 SHL SUB DUP4 AND ISZERO PUSH2 0x1396 JUMPI PUSH2 0x1396 DUP2 DUP5 DUP7 PUSH2 0x193E JUMP JUMPDEST PUSH1 0x1 PUSH1 0x1 PUSH1 0xA0 SHL SUB DUP2 AND ISZERO PUSH2 0x13D0 JUMPI PUSH2 0x13B1 PUSH0 DUP6 PUSH0 DUP1 PUSH2 0x1821 JUMP JUMPDEST PUSH1 0x1 PUSH1 0x1 PUSH1 0xA0 SHL SUB DUP2 AND PUSH0 SWAP1 DUP2 MSTORE PUSH1 0x3 PUSH1 0x20 MSTORE PUSH1 0x40 SWAP1 KECCAK256 DUP1 SLOAD PUSH0 NOT ADD SWAP1 SSTORE JUMPDEST PUSH1 0x1 PUSH1 0x1 PUSH1 0xA0 SHL SUB DUP6 AND ISZERO PUSH2 0x13FE JUMPI PUSH1 0x1 PUSH1 0x1 PUSH1 0xA0 SHL SUB DUP6 AND PUSH0 SWAP1 DUP2 MSTORE PUSH1 0x3 PUSH1 0x20 MSTORE PUSH1 0x40 SWAP1 KECCAK256 DUP1 SLOAD PUSH1 0x1 ADD SWAP1 SSTORE JUMPDEST PUSH0 DUP5 DUP2 MSTORE PUSH1 0x2 PUSH1 0x20 MSTORE PUSH1 0x40 DUP1 DUP3 KECCAK256 DUP1 SLOAD PUSH1 0x1 PUSH1 0x1 PUSH1 0xA0 SHL SUB NOT AND PUSH1 0x1 PUSH1 0x1 PUSH1 0xA0 SHL SUB DUP10 DUP2 AND SWAP2 DUP3 OR SWAP1 SWAP3 SSTORE SWAP2 MLOAD DUP8 SWAP4 SWAP2 DUP6 AND SWAP2 PUSH32 0xDDF252AD1BE2C89B69C2B068FC378DAA952BA7F163C4A11628F55A4DF523B3EF SWAP2 LOG4 SWAP5 SWAP4 POP POP POP POP JUMP JUMPDEST PUSH0 SWAP1 DUP2 MSTORE PUSH1 0x2 PUSH1 0x20 MSTORE PUSH1 0x40 SWAP1 KECCAK256 SLOAD PUSH1 0x1 PUSH1 0x1 PUSH1 0xA0 SHL SUB AND SWAP1 JUMP JUMPDEST PUSH0 PUSH2 0x1482 PUSH0 DUP4 PUSH0 PUSH2 0x136F JUMP JUMPDEST SWAP1 POP PUSH1 0x1 PUSH1 0x1 PUSH1 0xA0 SHL SUB DUP2 AND PUSH2 0x68F JUMPI PUSH1 0x40 MLOAD PUSH4 0x7E273289 PUSH1 0xE0 SHL DUP2 MSTORE PUSH1 0x4 DUP2 ADD DUP4 SWAP1 MSTORE PUSH1 0x24 ADD PUSH2 0x6E6 JUMP JUMPDEST PUSH1 0x6 SLOAD PUSH1 0x1 PUSH1 0x1 PUSH1 0xA0 SHL SUB AND CALLER EQ PUSH2 0xC46 JUMPI PUSH1 0x40 MLOAD PUSH4 0x118CDAA7 PUSH1 0xE0 SHL DUP2 MSTORE CALLER PUSH1 0x4 DUP3 ADD MSTORE PUSH1 0x24 ADD PUSH2 0x6E6 JUMP JUMPDEST PUSH1 0x6 DUP1 SLOAD PUSH1 0x1 PUSH1 0x1 PUSH1 0xA0 SHL SUB DUP4 DUP2 AND PUSH1 0x1 PUSH1 0x1 PUSH1 0xA0 SHL SUB NOT DUP4 AND DUP2 OR SWAP1 SWAP4 SSTORE PUSH1 0x40 MLOAD SWAP2 AND SWAP2 SWAP1 DUP3 SWAP1 PUSH32 0x8BE0079C531659141344CD1FD0A4F28419497F9722A3DAAFE3B4186F6B6457E0 SWAP1 PUSH0 SWAP1 LOG3 POP POP JUMP JUMPDEST PUSH1 0x1 PUSH1 0x1 PUSH1 0xA0 SHL SUB DUP4 AND PUSH2 0x1555 JUMPI PUSH1 0x40 MLOAD PUSH4 0xA9FBF51F PUSH1 0xE0 SHL DUP2 MSTORE PUSH0 PUSH1 0x4 DUP3 ADD MSTORE PUSH1 0x24 ADD PUSH2 0x6E6 JUMP JUMPDEST PUSH1 0x1 PUSH1 0x1 PUSH1 0xA0 SHL SUB DUP3 AND PUSH2 0x1587 JUMPI PUSH1 0x40 MLOAD PUSH4 0xB611743 PUSH1 0xE3 SHL DUP2 MSTORE PUSH1 0x1 PUSH1 0x1 PUSH1 0xA0 SHL SUB DUP4 AND PUSH1 0x4 DUP3 ADD MSTORE PUSH1 0x24 ADD PUSH2 0x6E6 JUMP JUMPDEST PUSH1 0x1 PUSH1 0x1 PUSH1 0xA0 SHL SUB DUP4 DUP2 AND PUSH0 DUP2 DUP2 MSTORE PUSH1 0x5 PUSH1 0x20 SWAP1 DUP2 MSTORE PUSH1 0x40 DUP1 DUP4 KECCAK256 SWAP5 DUP8 AND DUP1 DUP5 MSTORE SWAP5 DUP3 MSTORE SWAP2 DUP3 SWAP1 KECCAK256 DUP1 SLOAD PUSH1 0xFF NOT AND DUP7 ISZERO ISZERO SWAP1 DUP2 OR SWAP1 SWAP2 SSTORE SWAP2 MLOAD SWAP2 DUP3 MSTORE PUSH32 0x17307EAB39AB6107E8899845AD3D59BD9653F200F220920489CA2B5937696C31 SWAP2 ADD PUSH1 0x40 MLOAD DUP1 SWAP2 SUB SWAP1 LOG3 POP POP POP JUMP JUMPDEST PUSH1 0x1 PUSH1 0x1 PUSH1 0xA0 SHL SUB DUP4 AND EXTCODESIZE ISZERO PUSH2 0x1714 JUMPI PUSH1 0x40 MLOAD PUSH4 0xA85BD01 PUSH1 0xE1 SHL DUP2 MSTORE PUSH1 0x1 PUSH1 0x1 PUSH1 0xA0 SHL SUB DUP5 AND SWAP1 PUSH4 0x150B7A02 SWAP1 PUSH2 0x1635 SWAP1 DUP9 SWAP1 DUP9 SWAP1 DUP8 SWAP1 DUP8 SWAP1 PUSH1 0x4 ADD PUSH2 0x216B JUMP JUMPDEST PUSH1 0x20 PUSH1 0x40 MLOAD DUP1 DUP4 SUB DUP2 PUSH0 DUP8 GAS CALL SWAP3 POP POP POP DUP1 ISZERO PUSH2 0x166F JUMPI POP PUSH1 0x40 DUP1 MLOAD PUSH1 0x1F RETURNDATASIZE SWAP1 DUP2 ADD PUSH1 0x1F NOT AND DUP3 ADD SWAP1 SWAP3 MSTORE PUSH2 0x166C SWAP2 DUP2 ADD SWAP1 PUSH2 0x21A7 JUMP JUMPDEST PUSH1 0x1 JUMPDEST PUSH2 0x16D6 JUMPI RETURNDATASIZE DUP1 DUP1 ISZERO PUSH2 0x169C JUMPI PUSH1 0x40 MLOAD SWAP2 POP PUSH1 0x1F NOT PUSH1 0x3F RETURNDATASIZE ADD AND DUP3 ADD PUSH1 0x40 MSTORE RETURNDATASIZE DUP3 MSTORE RETURNDATASIZE PUSH0 PUSH1 0x20 DUP5 ADD RETURNDATACOPY PUSH2 0x16A1 JUMP JUMPDEST PUSH1 0x60 SWAP2 POP JUMPDEST POP DUP1 MLOAD PUSH0 SUB PUSH2 0x16CE JUMPI PUSH1 0x40 MLOAD PUSH4 0x32505749 PUSH1 0xE1 SHL DUP2 MSTORE PUSH1 0x1 PUSH1 0x1 PUSH1 0xA0 SHL SUB DUP6 AND PUSH1 0x4 DUP3 ADD MSTORE PUSH1 0x24 ADD PUSH2 0x6E6 JUMP JUMPDEST DUP1 MLOAD PUSH1 0x20 DUP3 ADD REVERT JUMPDEST PUSH1 0x1 PUSH1 0x1 PUSH1 0xE0 SHL SUB NOT DUP2 AND PUSH4 0xA85BD01 PUSH1 0xE1 SHL EQ PUSH2 0x1712 JUMPI PUSH1 0x40 MLOAD PUSH4 0x32505749 PUSH1 0xE1 SHL DUP2 MSTORE PUSH1 0x1 PUSH1 0x1 PUSH1 0xA0 SHL SUB DUP6 AND PUSH1 0x4 DUP3 ADD MSTORE PUSH1 0x24 ADD PUSH2 0x6E6 JUMP JUMPDEST POP JUMPDEST POP POP POP POP POP JUMP JUMPDEST PUSH1 0x60 DUP2 PUSH0 SUB PUSH2 0x1741 JUMPI POP POP PUSH1 0x40 DUP1 MLOAD DUP1 DUP3 ADD SWAP1 SWAP2 MSTORE PUSH1 0x1 DUP2 MSTORE PUSH1 0x3 PUSH1 0xFC SHL PUSH1 0x20 DUP3 ADD MSTORE SWAP1 JUMP JUMPDEST DUP2 PUSH0 JUMPDEST DUP2 ISZERO PUSH2 0x176A JUMPI DUP1 PUSH2 0x1754 DUP2 PUSH2 0x2153 JUMP JUMPDEST SWAP2 POP PUSH2 0x1763 SWAP1 POP PUSH1 0xA DUP4 PUSH2 0x1F1E JUMP JUMPDEST SWAP2 POP PUSH2 0x1744 JUMP JUMPDEST PUSH0 DUP2 PUSH8 0xFFFFFFFFFFFFFFFF DUP2 GT ISZERO PUSH2 0x1784 JUMPI PUSH2 0x1784 PUSH2 0x1CFD JUMP JUMPDEST PUSH1 0x40 MLOAD SWAP1 DUP1 DUP3 MSTORE DUP1 PUSH1 0x1F ADD PUSH1 0x1F NOT AND PUSH1 0x20 ADD DUP3 ADD PUSH1 0x40 MSTORE DUP1 ISZERO PUSH2 0x17AE JUMPI PUSH1 0x20 DUP3 ADD DUP2 DUP1 CALLDATASIZE DUP4 CALLDATACOPY ADD SWAP1 POP JUMPDEST POP SWAP1 POP JUMPDEST DUP5 ISZERO PUSH2 0x1819 JUMPI DUP2 PUSH2 0x17C2 DUP2 PUSH2 0x1F44 JUMP JUMPDEST SWAP3 POP PUSH2 0x17D1 SWAP1 POP PUSH1 0xA DUP7 PUSH2 0x2140 JUMP JUMPDEST PUSH2 0x17DC SWAP1 PUSH1 0x30 PUSH2 0x1ECF JUMP JUMPDEST PUSH1 0xF8 SHL DUP2 DUP4 DUP2 MLOAD DUP2 LT PUSH2 0x17F1 JUMPI PUSH2 0x17F1 PUSH2 0x1F59 JUMP JUMPDEST PUSH1 0x20 ADD ADD SWAP1 PUSH1 0x1 PUSH1 0x1 PUSH1 0xF8 SHL SUB NOT AND SWAP1 DUP2 PUSH0 BYTE SWAP1 MSTORE8 POP PUSH2 0x1812 PUSH1 0xA DUP7 PUSH2 0x1F1E JUMP JUMPDEST SWAP5 POP PUSH2 0x17B2 JUMP JUMPDEST SWAP5 SWAP4 POP POP POP POP JUMP JUMPDEST DUP1 DUP1 PUSH2 0x1835 JUMPI POP PUSH1 0x1 PUSH1 0x1 PUSH1 0xA0 SHL SUB DUP3 AND ISZERO ISZERO JUMPDEST ISZERO PUSH2 0x18F6 JUMPI PUSH0 PUSH2 0x1844 DUP5 PUSH2 0x11DF JUMP JUMPDEST SWAP1 POP PUSH1 0x1 PUSH1 0x1 PUSH1 0xA0 SHL SUB DUP4 AND ISZERO DUP1 ISZERO SWAP1 PUSH2 0x1870 JUMPI POP DUP3 PUSH1 0x1 PUSH1 0x1 PUSH1 0xA0 SHL SUB AND DUP2 PUSH1 0x1 PUSH1 0x1 PUSH1 0xA0 SHL SUB AND EQ ISZERO JUMPDEST DUP1 ISZERO PUSH2 0x1883 JUMPI POP PUSH2 0x1881 DUP2 DUP5 PUSH2 0x1178 JUMP JUMPDEST ISZERO JUMPDEST ISZERO PUSH2 0x18AC JUMPI PUSH1 0x40 MLOAD PUSH4 0xA9FBF51F PUSH1 0xE0 SHL DUP2 MSTORE PUSH1 0x1 PUSH1 0x1 PUSH1 0xA0 SHL SUB DUP5 AND PUSH1 0x4 DUP3 ADD MSTORE PUSH1 0x24 ADD PUSH2 0x6E6 JUMP JUMPDEST DUP2 ISZERO PUSH2 0x18F4 JUMPI DUP4 DUP6 PUSH1 0x1 PUSH1 0x1 PUSH1 0xA0 SHL SUB AND DUP3 PUSH1 0x1 PUSH1 0x1 PUSH1 0xA0 SHL SUB AND PUSH32 0x8C5BE1E5EBEC7D5BD14F71427D1E84F3DD0314C0F7B2291E5B200AC8C7C3B925 PUSH1 0x40 MLOAD PUSH1 0x40 MLOAD DUP1 SWAP2 SUB SWAP1 LOG4 JUMPDEST POP JUMPDEST POP POP PUSH0 SWAP1 DUP2 MSTORE PUSH1 0x4 PUSH1 0x20 MSTORE PUSH1 0x40 SWAP1 KECCAK256 DUP1 SLOAD PUSH1 0x1 PUSH1 0x1 PUSH1 0xA0 SHL SUB NOT AND PUSH1 0x1 PUSH1 0x1 PUSH1 0xA0 SHL SUB SWAP3 SWAP1 SWAP3 AND SWAP2 SWAP1 SWAP2 OR SWAP1 SSTORE JUMP JUMPDEST PUSH2 0x68F DUP3 DUP3 PUSH1 0x40 MLOAD DUP1 PUSH1 0x20 ADD PUSH1 0x40 MSTORE DUP1 PUSH0 DUP2 MSTORE POP PUSH2 0x19A2 JUMP JUMPDEST PUSH2 0x1949 DUP4 DUP4 DUP4 PUSH2 0x19B9 JUMP JUMPDEST PUSH2 0x8AB JUMPI PUSH1 0x1 PUSH1 0x1 PUSH1 0xA0 SHL SUB DUP4 AND PUSH2 0x1977 JUMPI PUSH1 0x40 MLOAD PUSH4 0x7E273289 PUSH1 0xE0 SHL DUP2 MSTORE PUSH1 0x4 DUP2 ADD DUP3 SWAP1 MSTORE PUSH1 0x24 ADD PUSH2 0x6E6 JUMP JUMPDEST PUSH1 0x40 MLOAD PUSH4 0x177E802F PUSH1 0xE0 SHL DUP2 MSTORE PUSH1 0x1 PUSH1 0x1 PUSH1 0xA0 SHL SUB DUP4 AND PUSH1 0x4 DUP3 ADD MSTORE PUSH1 0x24 DUP2 ADD DUP3 SWAP1 MSTORE PUSH1 0x44 ADD PUSH2 0x6E6 JUMP JUMPDEST PUSH2 0x19AC DUP4 DUP4 PUSH2 0x1A1A JUMP JUMPDEST PUSH2 0x8AB CALLER PUSH0 DUP6 DUP6 DUP6 PUSH2 0x15F3 JUMP JUMPDEST PUSH0 PUSH1 0x1 PUSH1 0x1 PUSH1 0xA0 SHL SUB DUP4 AND ISZERO DUP1 ISZERO SWAP1 PUSH2 0x1819 JUMPI POP DUP3 PUSH1 0x1 PUSH1 0x1 PUSH1 0xA0 SHL SUB AND DUP5 PUSH1 0x1 PUSH1 0x1 PUSH1 0xA0 SHL SUB AND EQ DUP1 PUSH2 0x19F2 JUMPI POP PUSH2 0x19F2 DUP5 DUP5 PUSH2 0x1178 JUMP JUMPDEST DUP1 PUSH2 0x1819 JUMPI POP POP PUSH0 SWAP1 DUP2 MSTORE PUSH1 0x4 PUSH1 0x20 MSTORE PUSH1 0x40 SWAP1 KECCAK256 SLOAD PUSH1 0x1 PUSH1 0x1 PUSH1 0xA0 SHL SUB SWAP1 DUP2 AND SWAP2 AND EQ SWAP2 SWAP1 POP JUMP JUMPDEST PUSH1 0x1 PUSH1 0x1 PUSH1 0xA0 SHL SUB DUP3 AND PUSH2 0x1A43 JUMPI PUSH1 0x40 MLOAD PUSH4 0x32505749 PUSH1 0xE1 SHL DUP2 MSTORE PUSH0 PUSH1 0x4 DUP3 ADD MSTORE PUSH1 0x24 ADD PUSH2 0x6E6 JUMP JUMPDEST PUSH0 PUSH2 0x1A4F DUP4 DUP4 PUSH0 PUSH2 0x136F JUMP JUMPDEST SWAP1 POP PUSH1 0x1 PUSH1 0x1 PUSH1 0xA0 SHL SUB DUP2 AND ISZERO PUSH2 0x8AB JUMPI PUSH1 0x40 MLOAD PUSH4 0x39E35637 PUSH1 0xE1 SHL DUP2 MSTORE PUSH0 PUSH1 0x4 DUP3 ADD MSTORE PUSH1 0x24 ADD PUSH2 0x6E6 JUMP JUMPDEST PUSH1 0x1 PUSH1 0x1 PUSH1 0xE0 SHL SUB NOT DUP2 AND DUP2 EQ PUSH2 0x805 JUMPI PUSH0 DUP1 REVERT JUMPDEST PUSH0 PUSH1 0x20 DUP3 DUP5 SUB SLT ISZERO PUSH2 0x1AA0 JUMPI PUSH0 DUP1 REVERT JUMPDEST DUP2 CALLDATALOAD PUSH2 0x8F0 DUP2 PUSH2 0x1A7B JUMP JUMPDEST PUSH0 JUMPDEST DUP4 DUP2 LT ISZERO PUSH2 0x1AC5 JUMPI DUP2 DUP2 ADD MLOAD DUP4 DUP3 ADD MSTORE PUSH1 0x20 ADD PUSH2 0x1AAD JUMP JUMPDEST POP POP PUSH0 SWAP2 ADD MSTORE JUMP JUMPDEST PUSH0 DUP2 MLOAD DUP1 DUP5 MSTORE PUSH2 0x1AE4 DUP2 PUSH1 0x20 DUP7 ADD PUSH1 0x20 DUP7 ADD PUSH2 0x1AAB JUMP JUMPDEST PUSH1 0x1F ADD PUSH1 0x1F NOT AND SWAP3 SWAP1 SWAP3 ADD PUSH1 0x20 ADD SWAP3 SWAP2 POP POP JUMP JUMPDEST PUSH1 0x20 DUP2 MSTORE PUSH0 PUSH2 0x8F0 PUSH1 0x20 DUP4 ADD DUP5 PUSH2 0x1ACD JUMP JUMPDEST PUSH0 PUSH1 0x20 DUP3 DUP5 SUB SLT ISZERO PUSH2 0x1B1A JUMPI PUSH0 DUP1 REVERT JUMPDEST POP CALLDATALOAD SWAP2 SWAP1 POP JUMP JUMPDEST DUP1 CALLDATALOAD PUSH1 0x1 PUSH1 0x1 PUSH1 0xA0 SHL SUB DUP2 AND DUP2 EQ PUSH2 0x1B37 JUMPI PUSH0 DUP1 REVERT JUMPDEST SWAP2 SWAP1 POP JUMP JUMPDEST PUSH0 DUP1 PUSH1 0x40 DUP4 DUP6 SUB SLT ISZERO PUSH2 0x1B4D JUMPI PUSH0 DUP1 REVERT JUMPDEST PUSH2 0x1B56 DUP4 PUSH2 0x1B21 JUMP JUMPDEST SWAP5 PUSH1 0x20 SWAP4 SWAP1 SWAP4 ADD CALLDATALOAD SWAP4 POP POP POP JUMP JUMPDEST PUSH0 DUP1 PUSH0 PUSH1 0x60 DUP5 DUP7 SUB SLT ISZERO PUSH2 0x1B76 JUMPI PUSH0 DUP1 REVERT JUMPDEST PUSH2 0x1B7F DUP5 PUSH2 0x1B21 JUMP JUMPDEST SWAP3 POP PUSH2 0x1B8D PUSH1 0x20 DUP6 ADD PUSH2 0x1B21 JUMP JUMPDEST SWAP2 POP PUSH1 0x40 DUP5 ADD CALLDATALOAD SWAP1 POP SWAP3 POP SWAP3 POP SWAP3 JUMP JUMPDEST PUSH0 PUSH1 0x20 DUP3 DUP5 SUB SLT ISZERO PUSH2 0x1BAD JUMPI PUSH0 DUP1 REVERT JUMPDEST PUSH2 0x8F0 DUP3 PUSH2 0x1B21 JUMP JUMPDEST DUP1 CALLDATALOAD PUSH1 0xFF DUP2 AND DUP2 EQ PUSH2 0x1B37 JUMPI PUSH0 DUP1 REVERT JUMPDEST PUSH0 DUP1 PUSH1 0x40 DUP4 DUP6 SUB SLT ISZERO PUSH2 0x1BD7 JUMPI PUSH0 DUP1 REVERT JUMPDEST DUP3 CALLDATALOAD SWAP2 POP PUSH2 0x1BE7 PUSH1 0x20 DUP5 ADD PUSH2 0x1BB6 JUMP JUMPDEST SWAP1 POP SWAP3 POP SWAP3 SWAP1 POP JUMP JUMPDEST DUP1 ISZERO ISZERO DUP2 EQ PUSH2 0x805 JUMPI PUSH0 DUP1 REVERT JUMPDEST PUSH0 DUP1 PUSH1 0x40 DUP4 DUP6 SUB SLT ISZERO PUSH2 0x1C0E JUMPI PUSH0 DUP1 REVERT JUMPDEST PUSH2 0x1C17 DUP4 PUSH2 0x1B21 JUMP JUMPDEST SWAP2 POP PUSH1 0x20 DUP4 ADD CALLDATALOAD PUSH2 0x1C27 DUP2 PUSH2 0x1BF0 JUMP JUMPDEST DUP1 SWAP2 POP POP SWAP3 POP SWAP3 SWAP1 POP JUMP JUMPDEST PUSH0 DUP1 DUP4 PUSH1 0x1F DUP5 ADD SLT PUSH2 0x1C42 JUMPI PUSH0 DUP1 REVERT JUMPDEST POP DUP2 CALLDATALOAD PUSH8 0xFFFFFFFFFFFFFFFF DUP2 GT ISZERO PUSH2 0x1C59 JUMPI PUSH0 DUP1 REVERT JUMPDEST PUSH1 0x20 DUP4 ADD SWAP2 POP DUP4 PUSH1 0x20 DUP3 PUSH1 0x5 SHL DUP6 ADD ADD GT ISZERO PUSH2 0x1C73 JUMPI PUSH0 DUP1 REVERT JUMPDEST SWAP3 POP SWAP3 SWAP1 POP JUMP JUMPDEST PUSH0 DUP1 PUSH0 DUP1 PUSH0 DUP1 PUSH1 0x80 DUP8 DUP10 SUB SLT ISZERO PUSH2 0x1C8F JUMPI PUSH0 DUP1 REVERT JUMPDEST DUP7 CALLDATALOAD PUSH8 0xFFFFFFFFFFFFFFFF DUP1 DUP3 GT ISZERO PUSH2 0x1CA6 JUMPI PUSH0 DUP1 REVERT JUMPDEST PUSH2 0x1CB2 DUP11 DUP4 DUP12 ADD PUSH2 0x1C32 JUMP JUMPDEST SWAP1 SWAP9 POP SWAP7 POP PUSH1 0x20 DUP10 ADD CALLDATALOAD SWAP6 POP PUSH1 0x40 DUP10 ADD CALLDATALOAD SWAP2 POP DUP1 DUP3 GT ISZERO PUSH2 0x1CD1 JUMPI PUSH0 DUP1 REVERT JUMPDEST POP PUSH2 0x1CDE DUP10 DUP3 DUP11 ADD PUSH2 0x1C32 JUMP JUMPDEST SWAP1 SWAP5 POP SWAP3 POP PUSH2 0x1CF1 SWAP1 POP PUSH1 0x60 DUP9 ADD PUSH2 0x1BB6 JUMP JUMPDEST SWAP1 POP SWAP3 SWAP6 POP SWAP3 SWAP6 POP SWAP3 SWAP6 JUMP JUMPDEST PUSH4 0x4E487B71 PUSH1 0xE0 SHL PUSH0 MSTORE PUSH1 0x41 PUSH1 0x4 MSTORE PUSH1 0x24 PUSH0 REVERT JUMPDEST PUSH0 PUSH8 0xFFFFFFFFFFFFFFFF DUP1 DUP5 GT ISZERO PUSH2 0x1D2B JUMPI PUSH2 0x1D2B PUSH2 0x1CFD JUMP JUMPDEST PUSH1 0x40 MLOAD PUSH1 0x1F DUP6 ADD PUSH1 0x1F NOT SWAP1 DUP2 AND PUSH1 0x3F ADD AND DUP2 ADD SWAP1 DUP3 DUP3 GT DUP2 DUP4 LT OR ISZERO PUSH2 0x1D53 JUMPI PUSH2 0x1D53 PUSH2 0x1CFD JUMP JUMPDEST DUP2 PUSH1 0x40 MSTORE DUP1 SWAP4 POP DUP6 DUP2 MSTORE DUP7 DUP7 DUP7 ADD GT ISZERO PUSH2 0x1D6B JUMPI PUSH0 DUP1 REVERT JUMPDEST DUP6 DUP6 PUSH1 0x20 DUP4 ADD CALLDATACOPY PUSH0 PUSH1 0x20 DUP8 DUP4 ADD ADD MSTORE POP POP POP SWAP4 SWAP3 POP POP POP JUMP JUMPDEST PUSH0 PUSH1 0x20 DUP3 DUP5 SUB SLT ISZERO PUSH2 0x1D94 JUMPI PUSH0 DUP1 REVERT JUMPDEST DUP2 CALLDATALOAD PUSH8 0xFFFFFFFFFFFFFFFF DUP2 GT ISZERO PUSH2 0x1DAA JUMPI PUSH0 DUP1 REVERT JUMPDEST DUP3 ADD PUSH1 0x1F DUP2 ADD DUP5 SGT PUSH2 0x1DBA JUMPI PUSH0 DUP1 REVERT JUMPDEST PUSH2 0x1819 DUP5 DUP3 CALLDATALOAD PUSH1 0x20 DUP5 ADD PUSH2 0x1D11 JUMP JUMPDEST PUSH0 DUP1 PUSH0 DUP1 PUSH1 0x80 DUP6 DUP8 SUB SLT ISZERO PUSH2 0x1DDC JUMPI PUSH0 DUP1 REVERT JUMPDEST PUSH2 0x1DE5 DUP6 PUSH2 0x1B21 JUMP JUMPDEST SWAP4 POP PUSH2 0x1DF3 PUSH1 0x20 DUP7 ADD PUSH2 0x1B21 JUMP JUMPDEST SWAP3 POP PUSH1 0x40 DUP6 ADD CALLDATALOAD SWAP2 POP PUSH1 0x60 DUP6 ADD CALLDATALOAD PUSH8 0xFFFFFFFFFFFFFFFF DUP2 GT ISZERO PUSH2 0x1E15 JUMPI PUSH0 DUP1 REVERT JUMPDEST DUP6 ADD PUSH1 0x1F DUP2 ADD DUP8 SGT PUSH2 0x1E25 JUMPI PUSH0 DUP1 REVERT JUMPDEST PUSH2 0x1E34 DUP8 DUP3 CALLDATALOAD PUSH1 0x20 DUP5 ADD PUSH2 0x1D11 JUMP JUMPDEST SWAP2 POP POP SWAP3 SWAP6 SWAP2 SWAP5 POP SWAP3 POP JUMP JUMPDEST PUSH0 DUP1 PUSH1 0x40 DUP4 DUP6 SUB SLT ISZERO PUSH2 0x1E51 JUMPI PUSH0 DUP1 REVERT JUMPDEST PUSH2 0x1E5A DUP4 PUSH2 0x1B21 JUMP JUMPDEST SWAP2 POP PUSH2 0x1BE7 PUSH1 0x20 DUP5 ADD PUSH2 0x1B21 JUMP JUMPDEST PUSH1 0x1 DUP2 DUP2 SHR SWAP1 DUP3 AND DUP1 PUSH2 0x1E7C JUMPI PUSH1 0x7F DUP3 AND SWAP2 POP JUMPDEST PUSH1 0x20 DUP3 LT DUP2 SUB PUSH2 0x1E9A JUMPI PUSH4 0x4E487B71 PUSH1 0xE0 SHL PUSH0 MSTORE PUSH1 0x22 PUSH1 0x4 MSTORE PUSH1 0x24 PUSH0 REVERT JUMPDEST POP SWAP2 SWAP1 POP JUMP JUMPDEST PUSH0 PUSH1 0x20 DUP3 DUP5 SUB SLT ISZERO PUSH2 0x1EB0 JUMPI PUSH0 DUP1 REVERT JUMPDEST DUP2 MLOAD PUSH2 0x8F0 DUP2 PUSH2 0x1BF0 JUMP JUMPDEST PUSH4 0x4E487B71 PUSH1 0xE0 SHL PUSH0 MSTORE PUSH1 0x11 PUSH1 0x4 MSTORE PUSH1 0x24 PUSH0 REVERT JUMPDEST DUP1 DUP3 ADD DUP1 DUP3 GT ISZERO PUSH2 0x5C8 JUMPI PUSH2 0x5C8 PUSH2 0x1EBB JUMP JUMPDEST PUSH1 0x20 DUP1 DUP3 MSTORE PUSH1 0xE SWAP1 DUP3 ADD MSTORE PUSH14 0x139BC81858DD1A5D994818D85C99 PUSH1 0x92 SHL PUSH1 0x40 DUP3 ADD MSTORE PUSH1 0x60 ADD SWAP1 JUMP JUMPDEST PUSH4 0x4E487B71 PUSH1 0xE0 SHL PUSH0 MSTORE PUSH1 0x12 PUSH1 0x4 MSTORE PUSH1 0x24 PUSH0 REVERT JUMPDEST PUSH0 DUP3 PUSH2 0x1F2C JUMPI PUSH2 0x1F2C PUSH2 0x1F0A JUMP JUMPDEST POP DIV SWAP1 JUMP JUMPDEST DUP2 DUP2 SUB DUP2 DUP2 GT ISZERO PUSH2 0x5C8 JUMPI PUSH2 0x5C8 PUSH2 0x1EBB JUMP JUMPDEST PUSH0 DUP2 PUSH2 0x1F52 JUMPI PUSH2 0x1F52 PUSH2 0x1EBB JUMP JUMPDEST POP PUSH0 NOT ADD SWAP1 JUMP JUMPDEST PUSH4 0x4E487B71 PUSH1 0xE0 SHL PUSH0 MSTORE PUSH1 0x32 PUSH1 0x4 MSTORE PUSH1 0x24 PUSH0 REVERT JUMPDEST PUSH0 PUSH1 0x20 DUP3 DUP5 SUB SLT ISZERO PUSH2 0x1F7D JUMPI PUSH0 DUP1 REVERT JUMPDEST PUSH2 0x8F0 DUP3 PUSH2 0x1BB6 JUMP JUMPDEST PUSH0 PUSH1 0xFF DUP3 AND PUSH1 0xFF DUP2 SUB PUSH2 0x1F9B JUMPI PUSH2 0x1F9B PUSH2 0x1EBB JUMP JUMPDEST PUSH1 0x1 ADD SWAP3 SWAP2 POP POP JUMP JUMPDEST PUSH1 0x1F DUP3 GT ISZERO PUSH2 0x8AB JUMPI DUP1 PUSH0 MSTORE PUSH1 0x20 PUSH0 KECCAK256 PUSH1 0x1F DUP5 ADD PUSH1 0x5 SHR DUP2 ADD PUSH1 0x20 DUP6 LT ISZERO PUSH2 0x1FC9 JUMPI POP DUP1 JUMPDEST PUSH1 0x1F DUP5 ADD PUSH1 0x5 SHR DUP3 ADD SWAP2 POP JUMPDEST DUP2 DUP2 LT ISZERO PUSH2 0x1714 JUMPI PUSH0 DUP2 SSTORE PUSH1 0x1 ADD PUSH2 0x1FD5 JUMP JUMPDEST DUP2 MLOAD PUSH8 0xFFFFFFFFFFFFFFFF DUP2 GT ISZERO PUSH2 0x2002 JUMPI PUSH2 0x2002 PUSH2 0x1CFD JUMP JUMPDEST PUSH2 0x2016 DUP2 PUSH2 0x2010 DUP5 SLOAD PUSH2 0x1E68 JUMP JUMPDEST DUP5 PUSH2 0x1FA4 JUMP JUMPDEST PUSH1 0x20 DUP1 PUSH1 0x1F DUP4 GT PUSH1 0x1 DUP2 EQ PUSH2 0x2049 JUMPI PUSH0 DUP5 ISZERO PUSH2 0x2032 JUMPI POP DUP6 DUP4 ADD MLOAD JUMPDEST PUSH0 NOT PUSH1 0x3 DUP7 SWAP1 SHL SHR NOT AND PUSH1 0x1 DUP6 SWAP1 SHL OR DUP6 SSTORE PUSH2 0x1712 JUMP JUMPDEST PUSH0 DUP6 DUP2 MSTORE PUSH1 0x20 DUP2 KECCAK256 PUSH1 0x1F NOT DUP7 AND SWAP2 JUMPDEST DUP3 DUP2 LT ISZERO PUSH2 0x2077 JUMPI DUP9 DUP7 ADD MLOAD DUP3 SSTORE SWAP5 DUP5 ADD SWAP5 PUSH1 0x1 SWAP1 SWAP2 ADD SWAP1 DUP5 ADD PUSH2 0x2058 JUMP JUMPDEST POP DUP6 DUP3 LT ISZERO PUSH2 0x2094 JUMPI DUP8 DUP6 ADD MLOAD PUSH0 NOT PUSH1 0x3 DUP9 SWAP1 SHL PUSH1 0xF8 AND SHR NOT AND DUP2 SSTORE JUMPDEST POP POP POP POP POP PUSH1 0x1 SWAP1 DUP2 SHL ADD SWAP1 SSTORE POP JUMP JUMPDEST PUSH0 DUP1 DUP5 SLOAD PUSH2 0x20B1 DUP2 PUSH2 0x1E68 JUMP JUMPDEST PUSH1 0x1 DUP3 DUP2 AND DUP1 ISZERO PUSH2 0x20C9 JUMPI PUSH1 0x1 DUP2 EQ PUSH2 0x20DE JUMPI PUSH2 0x210A JUMP JUMPDEST PUSH1 0xFF NOT DUP5 AND DUP8 MSTORE DUP3 ISZERO ISZERO DUP4 MUL DUP8 ADD SWAP5 POP PUSH2 0x210A JUMP JUMPDEST DUP9 PUSH0 MSTORE PUSH1 0x20 DUP1 PUSH0 KECCAK256 PUSH0 JUMPDEST DUP6 DUP2 LT ISZERO PUSH2 0x2101 JUMPI DUP2 SLOAD DUP11 DUP3 ADD MSTORE SWAP1 DUP5 ADD SWAP1 DUP3 ADD PUSH2 0x20E8 JUMP JUMPDEST POP POP POP DUP3 DUP8 ADD SWAP5 POP JUMPDEST POP POP POP POP DUP4 MLOAD PUSH2 0x211E DUP2 DUP4 PUSH1 0x20 DUP9 ADD PUSH2 0x1AAB JUMP JUMPDEST ADD SWAP5 SWAP4 POP POP POP POP JUMP JUMPDEST PUSH1 0xFF DUP2 DUP2 AND DUP4 DUP3 AND ADD SWAP1 DUP2 GT ISZERO PUSH2 0x5C8 JUMPI PUSH2 0x5C8 PUSH2 0x1EBB JUMP JUMPDEST PUSH0 DUP3 PUSH2 0x214E JUMPI PUSH2 0x214E PUSH2 0x1F0A JUMP JUMPDEST POP MOD SWAP1 JUMP JUMPDEST PUSH0 PUSH1 0x1 DUP3 ADD PUSH2 0x2164 JUMPI PUSH2 0x2164 PUSH2 0x1EBB JUMP JUMPDEST POP PUSH1 0x1 ADD SWAP1 JUMP JUMPDEST PUSH1 0x1 PUSH1 0x1 PUSH1 0xA0 SHL SUB DUP6 DUP2 AND DUP3 MSTORE DUP5 AND PUSH1 0x20 DUP3 ADD MSTORE PUSH1 0x40 DUP2 ADD DUP4 SWAP1 MSTORE PUSH1 0x80 PUSH1 0x60 DUP3 ADD DUP2 SWAP1 MSTORE PUSH0 SWAP1 PUSH2 0x219D SWAP1 DUP4 ADD DUP5 PUSH2 0x1ACD JUMP JUMPDEST SWAP7 SWAP6 POP POP POP POP POP POP JUMP JUMPDEST PUSH0 PUSH1 0x20 DUP3 DUP5 SUB SLT ISZERO PUSH2 0x21B7 JUMPI PUSH0 DUP1 REVERT JUMPDEST DUP2 MLOAD PUSH2 0x8F0 DUP2 PUSH2 0x1A7B JUMP INVALID LOG2 PUSH5 0x6970667358 0x22 SLT KECCAK256 BLOCKHASH 0xB0 SLT CALL DUP16 STOP PUSH8 0x4F93EE14B1E4B6F4 BASEFEE SWAP9 MOD 0xE1 PUSH15 0x3D6E2D68983D1359507F006064736F PUSH13 0x63430008180033000000000000 "},"methodIdentifiers":{"COMMON()":"46e6a86c","EPIC()":"8467db1c","LEGENDARY()":"e140d1e1","MINT_PRICE()":"c002d23d","RARE()":"816171c0","THRESHOLDS(uint256)":"69a5e966","UNCOMMON()":"e0b8fd86","approve(address,uint256)":"095ea7b3","balanceOf(address)":"70a08231","baseImageUrl()":"66d0713f","cardIndex(uint256)":"ca89f4e4","claimPrize()":"70740ac9","correctPicks(address)":"3c0fa030","everMinted(address)":"66d146d7","getApproved(uint256)":"081812fc","hasPredicted(address,uint256)":"25986a93","isActivePlayer(address)":"54a7d931","isApprovedForAll(address,address)":"e985e9c5","legendaryCount()":"ce0348c6","mint()":"1249c58b","name()":"06fdde03","nextTokenId()":"75794a3c","owner()":"8da5cb5b","ownerOf(uint256)":"6352211e","playerToken(address)":"685ad315","predict(uint256,uint8)":"84ec1ed2","prizePool()":"719ce73e","renounceOwnership()":"715018a6","safeTransferFrom(address,address,uint256)":"42842e0e","safeTransferFrom(address,address,uint256,bytes)":"b88d4fde","scorePickBatch(address[],uint256,uint8[],uint8)":"a5e554a8","setApprovalForAll(address,bool)":"a22cb465","setBaseImageUrl(string)":"b56aca51","supportsInterface(bytes4)":"01ffc9a7","symbol()":"95d89b41","tier(uint256)":"6dda34db","tokenURI(uint256)":"c87b56dd","transferFrom(address,address,uint256)":"23b872dd","transferOwnership(address)":"f2fde38b","upgrade()":"d55ec697","usdt()":"2f48ab7d"}}}}}